{
  "contractName": "SparsePerceptron",
  "abi": [
    {
      "inputs": [
        {
          "internalType": "string[]",
          "name": "_classifications",
          "type": "string[]"
        },
        {
          "internalType": "int80[]",
          "name": "_weights",
          "type": "int80[]"
        },
        {
          "internalType": "int80",
          "name": "_intercept",
          "type": "int80"
        },
        {
          "internalType": "uint32",
          "name": "_learningRate",
          "type": "uint32"
        }
      ],
      "stateMutability": "nonpayable",
      "type": "constructor"
    },
    {
      "inputs": [
        {
          "internalType": "uint32[]",
          "name": "_featureIndices",
          "type": "uint32[]"
        }
      ],
      "name": "addFeatureIndices",
      "outputs": [],
      "stateMutability": "nonpayable",
      "type": "function"
    },
    {
      "inputs": [
        {
          "internalType": "uint256",
          "name": "",
          "type": "uint256"
        }
      ],
      "name": "classifications",
      "outputs": [
        {
          "internalType": "string",
          "name": "",
          "type": "string"
        }
      ],
      "stateMutability": "view",
      "type": "function",
      "constant": true
    },
    {
      "inputs": [
        {
          "internalType": "uint256",
          "name": "",
          "type": "uint256"
        }
      ],
      "name": "featureIndices",
      "outputs": [
        {
          "internalType": "uint32",
          "name": "",
          "type": "uint32"
        }
      ],
      "stateMutability": "view",
      "type": "function",
      "constant": true
    },
    {
      "inputs": [],
      "name": "getNumClassifications",
      "outputs": [
        {
          "internalType": "uint256",
          "name": "",
          "type": "uint256"
        }
      ],
      "stateMutability": "view",
      "type": "function",
      "constant": true
    },
    {
      "inputs": [],
      "name": "getNumFeatureIndices",
      "outputs": [
        {
          "internalType": "uint256",
          "name": "",
          "type": "uint256"
        }
      ],
      "stateMutability": "view",
      "type": "function",
      "constant": true
    },
    {
      "inputs": [],
      "name": "intercept",
      "outputs": [
        {
          "internalType": "int80",
          "name": "",
          "type": "int80"
        }
      ],
      "stateMutability": "view",
      "type": "function",
      "constant": true
    },
    {
      "inputs": [],
      "name": "learningRate",
      "outputs": [
        {
          "internalType": "uint32",
          "name": "",
          "type": "uint32"
        }
      ],
      "stateMutability": "view",
      "type": "function",
      "constant": true
    },
    {
      "inputs": [],
      "name": "owner",
      "outputs": [
        {
          "internalType": "address",
          "name": "",
          "type": "address"
        }
      ],
      "stateMutability": "view",
      "type": "function",
      "constant": true
    },
    {
      "inputs": [],
      "name": "toFloat",
      "outputs": [
        {
          "internalType": "uint32",
          "name": "",
          "type": "uint32"
        }
      ],
      "stateMutability": "view",
      "type": "function",
      "constant": true
    },
    {
      "inputs": [
        {
          "internalType": "address",
          "name": "newOwner",
          "type": "address"
        }
      ],
      "name": "transferOwnership",
      "outputs": [],
      "stateMutability": "nonpayable",
      "type": "function"
    },
    {
      "inputs": [
        {
          "internalType": "uint64",
          "name": "",
          "type": "uint64"
        }
      ],
      "name": "weights",
      "outputs": [
        {
          "internalType": "int80",
          "name": "",
          "type": "int80"
        }
      ],
      "stateMutability": "view",
      "type": "function",
      "constant": true
    },
    {
      "inputs": [
        {
          "internalType": "uint64",
          "name": "startIndex",
          "type": "uint64"
        },
        {
          "internalType": "int80[]",
          "name": "_weights",
          "type": "int80[]"
        }
      ],
      "name": "initializeWeights",
      "outputs": [],
      "stateMutability": "nonpayable",
      "type": "function"
    },
    {
      "inputs": [
        {
          "internalType": "int80[][]",
          "name": "_weights",
          "type": "int80[][]"
        }
      ],
      "name": "initializeSparseWeights",
      "outputs": [],
      "stateMutability": "nonpayable",
      "type": "function"
    },
    {
      "inputs": [
        {
          "internalType": "int64[]",
          "name": "",
          "type": "int64[]"
        }
      ],
      "name": "norm",
      "outputs": [
        {
          "internalType": "uint256",
          "name": "",
          "type": "uint256"
        }
      ],
      "stateMutability": "pure",
      "type": "function",
      "constant": true
    },
    {
      "inputs": [
        {
          "internalType": "int64[]",
          "name": "data",
          "type": "int64[]"
        }
      ],
      "name": "predict",
      "outputs": [
        {
          "internalType": "uint64",
          "name": "",
          "type": "uint64"
        }
      ],
      "stateMutability": "view",
      "type": "function",
      "constant": true
    },
    {
      "inputs": [
        {
          "internalType": "int64[]",
          "name": "data",
          "type": "int64[]"
        },
        {
          "internalType": "uint64",
          "name": "classification",
          "type": "uint64"
        }
      ],
      "name": "update",
      "outputs": [
        {
          "internalType": "uint64",
          "name": "",
          "type": "uint64"
        }
      ],
      "stateMutability": "payable",
      "type": "function",
      "payable": true
    },
    {
      "inputs": [
        {
          "internalType": "uint24[60][]",
          "name": "dataBatch",
          "type": "uint24[60][]"
        },
        {
          "internalType": "uint64[]",
          "name": "_classifications",
          "type": "uint64[]"
        }
      ],
      "name": "evaluateBatch",
      "outputs": [
        {
          "internalType": "uint256",
          "name": "numCorrect",
          "type": "uint256"
        }
      ],
      "stateMutability": "view",
      "type": "function",
      "constant": true
    }
  ],
  "bytecode": "0x60806040523480156200001157600080fd5b5060405162002297380380620022978339818101604052810190620000379190620004fe565b8380336000806101000a81548173ffffffffffffffffffffffffffffffffffffffff021916908373ffffffffffffffffffffffffffffffffffffffff160217905550806001908051906020019062000091929190620001d7565b50505081600460006101000a81548169ffffffffffffffffffff021916908360090b69ffffffffffffffffffff160217905550806004600a6101000a81548163ffffffff021916908363ffffffff16021790555067ffffffffffffffff83511062000133576040517f08c379a00000000000000000000000000000000000000000000000000000000081526004016200012a90620005de565b60405180910390fd5b60008090505b83518167ffffffffffffffff161015620001cc57838167ffffffffffffffff16815181106200016457fe5b6020026020010151600360008367ffffffffffffffff1667ffffffffffffffff16815260200190815260200160002060006101000a81548169ffffffffffffffffffff021916908360090b69ffffffffffffffffffff16021790555080600101905062000139565b505050505062000745565b8280548282559060005260206000209081019282156200022b579160200282015b828111156200022a578251829080519060200190620002199291906200023e565b5091602001919060010190620001f8565b5b5090506200023a9190620002c5565b5090565b828054600181600116156101000203166002900490600052602060002090601f016020900481019282601f106200028157805160ff1916838001178555620002b2565b82800160010185558215620002b2579182015b82811115620002b157825182559160200191906001019062000294565b5b509050620002c19190620002f6565b5090565b620002f391905b80821115620002ef5760008181620002e591906200031e565b50600101620002cc565b5090565b90565b6200031b91905b8082111562000317576000816000905550600101620002fd565b5090565b90565b50805460018160011615610100020316600290046000825580601f1062000346575062000367565b601f016020900490600052602060002090810190620003669190620002f6565b5b50565b600082601f8301126200037c57600080fd5b8151620003936200038d826200062e565b62000600565b91508181835260208401935060208101905083856020840282011115620003b957600080fd5b60005b83811015620003ed5781620003d2888262000474565b845260208401935060208301925050600181019050620003bc565b5050505092915050565b600082601f8301126200040957600080fd5b8151620004206200041a8262000657565b62000600565b9150818183526020840193506020810190508360005b838110156200046a57815186016200044f88826200048b565b84526020840193506020830192505060018101905062000436565b5050505092915050565b600081519050620004858162000711565b92915050565b600082601f8301126200049d57600080fd5b8151620004b4620004ae8262000680565b62000600565b91508082526020830160208301858383011115620004d157600080fd5b620004de838284620006db565b50505092915050565b600081519050620004f8816200072b565b92915050565b600080600080608085870312156200051557600080fd5b600085015167ffffffffffffffff8111156200053057600080fd5b6200053e87828801620003f7565b945050602085015167ffffffffffffffff8111156200055c57600080fd5b6200056a878288016200036a565b93505060406200057d8782880162000474565b92505060606200059087828801620004e7565b91505092959194509250565b6000620005ab601783620006ad565b91507f546f6f206d616e79207765696768747320676976656e2e0000000000000000006000830152602082019050919050565b60006020820190508181036000830152620005f9816200059c565b9050919050565b6000604051905081810181811067ffffffffffffffff821117156200062457600080fd5b8060405250919050565b600067ffffffffffffffff8211156200064657600080fd5b602082029050602081019050919050565b600067ffffffffffffffff8211156200066f57600080fd5b602082029050602081019050919050565b600067ffffffffffffffff8211156200069857600080fd5b601f19601f8301169050602081019050919050565b600082825260208201905092915050565b60008160090b9050919050565b600063ffffffff82169050919050565b60005b83811015620006fb578082015181840152602081019050620006de565b838111156200070b576000848401525b50505050565b6200071c81620006be565b81146200072857600080fd5b50565b6200073681620006cb565b81146200074257600080fd5b50565b611b4280620007556000396000f3fe6080604052600436106100fe5760003560e01c80635f7066a211610095578063a889493011610064578063a889493014610349578063bd7a1d6114610386578063d462f611146103b6578063e2c009bf146103f3578063f2fde38b1461041e576100fe565b80635f7066a21461028f578063788b9fcb146102cc57806382318482146102f55780638da5cb5b1461031e576100fe565b80631b72bc75116100d15780631b72bc75146101bf57806320930f53146101ea5780633766bf191461022757806349897d2814610252576100fe565b80630a6d371d1461010357806310822e92146101405780631396f97b1461016b57806319c1376714610194575b600080fd5b34801561010f57600080fd5b5061012a600480360381019061012591906114a2565b610447565b60405161013791906118a5565b60405180910390f35b34801561014c57600080fd5b5061015561047e565b604051610162919061188a565b60405180910390f35b34801561017757600080fd5b50610192600480360381019061018d9190611316565b61048b565b005b3480156101a057600080fd5b506101a961062f565b6040516101b6919061178d565b60405180910390f35b3480156101cb57600080fd5b506101d4610642565b6040516101e191906118a5565b60405180910390f35b3480156101f657600080fd5b50610211600480360381019061020c9190611357565b61064a565b60405161021e919061188a565b60405180910390f35b34801561023357600080fd5b5061023c61079e565b60405161024991906118a5565b60405180910390f35b34801561025e57600080fd5b50610279600480360381019061027491906113cc565b6107b4565b604051610286919061188a565b60405180910390f35b34801561029b57600080fd5b506102b660048036038101906102b191906113cc565b6107f1565b6040516102c391906118c0565b60405180910390f35b3480156102d857600080fd5b506102f360048036038101906102ee91906114f4565b6108fa565b005b34801561030157600080fd5b5061031c60048036038101906103179190611461565b610a26565b005b34801561032a57600080fd5b50610333610b40565b6040516103409190611772565b60405180910390f35b34801561035557600080fd5b50610370600480360381019061036b91906114a2565b610b65565b60405161037d91906117a8565b60405180910390f35b6103a0600480360381019061039b919061140d565b610c1e565b6040516103ad91906118c0565b60405180910390f35b3480156103c257600080fd5b506103dd60048036038101906103d891906114cb565b610dd3565b6040516103ea919061178d565b60405180910390f35b3480156103ff57600080fd5b50610408610df3565b604051610415919061188a565b60405180910390f35b34801561042a57600080fd5b50610445600480360381019061044091906112ed565b610e00565b005b6002818154811061045457fe5b9060005260206000209060089182820401919006600402915054906101000a900463ffffffff1681565b6000600180549050905090565b6000809054906101000a900473ffffffffffffffffffffffffffffffffffffffff1673ffffffffffffffffffffffffffffffffffffffff163373ffffffffffffffffffffffffffffffffffffffff161461051a576040517f08c379a00000000000000000000000000000000000000000000000000000000081526004016105119061184a565b60405180910390fd5b60008090505b815181101561062b57600082828151811061053757fe5b602002602001015160008151811061054b57fe5b60200260200101519050680100000000000000008160090b126105a3576040517f08c379a000000000000000000000000000000000000000000000000000000000815260040161059a9061180a565b60405180910390fd5b8282815181106105af57fe5b60200260200101516001815181106105c357fe5b6020026020010151600360008367ffffffffffffffff1667ffffffffffffffff16815260200190815260200160002060006101000a81548169ffffffffffffffffffff021916908360090b69ffffffffffffffffffff16021790555050806001019050610520565b5050565b600460009054906101000a900460090b81565b633b9aca0081565b60008090506000858590509050600080610662610fba565b600080600090505b85811015610790578a8a8281811061067e57fe5b90506107800201603c806020026040519081016040528092919082603c60200280828437600081840152601f19601f8201169050808301925050505050509250600460009054906101000a900460090b9150603c9350600094505b8385101561073057600360008487603c81106106f157fe5b602002015162ffffff1667ffffffffffffffff16815260200190815260200160002060009054906101000a900460090b820191508460010194506106d9565b60008260090b136107445760009150610749565b600191505b88888281811061075557fe5b905060200201602081019061076a91906114cb565b67ffffffffffffffff168260090b1415610785576001870196505b80600101905061066a565b505050505050949350505050565b6004600a9054906101000a900463ffffffff1681565b60006040517f08c379a00000000000000000000000000000000000000000000000000000000081526004016107e8906117ea565b60405180910390fd5b600080600460009054906101000a900460090b60090b905060008090505b83518110156108dc57600084828151811061082657fe5b602002602001015160070b1215610872576040517f08c379a00000000000000000000000000000000000000000000000000000000081526004016108699061186a565b60405180910390fd5b6108cf6003600086848151811061088557fe5b602002602001015167ffffffffffffffff1667ffffffffffffffff16815260200190815260200160002060009054906101000a900460090b60090b83610f4290919063ffffffff16565b915080600101905061080f565b50600081136108ef5760009150506108f5565b60019150505b919050565b6000809054906101000a900473ffffffffffffffffffffffffffffffffffffffff1673ffffffffffffffffffffffffffffffffffffffff163373ffffffffffffffffffffffffffffffffffffffff1614610989576040517f08c379a00000000000000000000000000000000000000000000000000000000081526004016109809061184a565b60405180910390fd5b60008090505b81518167ffffffffffffffff161015610a2157818167ffffffffffffffff16815181106109b857fe5b60200260200101516003600083860167ffffffffffffffff1667ffffffffffffffff16815260200190815260200160002060006101000a81548169ffffffffffffffffffff021916908360090b69ffffffffffffffffffff16021790555080600101905061098f565b505050565b6000809054906101000a900473ffffffffffffffffffffffffffffffffffffffff1673ffffffffffffffffffffffffffffffffffffffff163373ffffffffffffffffffffffffffffffffffffffff1614610ab5576040517f08c379a0000000000000000000000000000000000000000000000000000000008152600401610aac9061184a565b60405180910390fd5b60008090505b81518163ffffffff161015610b3c576002828263ffffffff1681518110610ade57fe5b602002602001015190806001815401808255809150506001900390600052602060002090600891828204019190066004029091909190916101000a81548163ffffffff021916908363ffffffff160217905550806001019050610abb565b5050565b6000809054906101000a900473ffffffffffffffffffffffffffffffffffffffff1681565b60018181548110610b7257fe5b906000526020600020016000915090508054600181600116156101000203166002900480601f016020809104026020016040519081016040528092919081815260200182805460018160011615610100020316600290048015610c165780601f10610beb57610100808354040283529160200191610c16565b820191906000526020600020905b815481529060010190602001808311610bf957829003601f168201915b505050505081565b600080610c2a846107f1565b90508267ffffffffffffffff168167ffffffffffffffff1614610dc7576000808551905060008567ffffffffffffffff161115610d1057600091505b80821015610d0b576004600a9054906101000a900463ffffffff1663ffffffff1660036000888581518110610c9757fe5b602002602001015167ffffffffffffffff1667ffffffffffffffff16815260200190815260200160002060008282829054906101000a900460090b0192506101000a81548169ffffffffffffffffffff021916908360090b69ffffffffffffffffffff160217905550816001019150610c66565b610dbb565b600091505b80821015610dba576004600a9054906101000a900463ffffffff1663ffffffff1660036000888581518110610d4657fe5b602002602001015167ffffffffffffffff1667ffffffffffffffff16815260200190815260200160002060008282829054906101000a900460090b0392506101000a81548169ffffffffffffffffffff021916908360090b69ffffffffffffffffffff160217905550816001019150610d15565b5b60019350505050610dcd565b60009150505b92915050565b60036020528060005260406000206000915054906101000a900460090b81565b6000600280549050905090565b6000809054906101000a900473ffffffffffffffffffffffffffffffffffffffff1673ffffffffffffffffffffffffffffffffffffffff163373ffffffffffffffffffffffffffffffffffffffff1614610e8f576040517f08c379a0000000000000000000000000000000000000000000000000000000008152600401610e869061184a565b60405180910390fd5b600073ffffffffffffffffffffffffffffffffffffffff168173ffffffffffffffffffffffffffffffffffffffff161415610eff576040517f08c379a0000000000000000000000000000000000000000000000000000000008152600401610ef6906117ca565b60405180910390fd5b806000806101000a81548173ffffffffffffffffffffffffffffffffffffffff021916908373ffffffffffffffffffffffffffffffffffffffff16021790555050565b600080828401905060008312158015610f5b5750838112155b80610f715750600083128015610f7057508381125b5b610fb0576040517f08c379a0000000000000000000000000000000000000000000000000000000008152600401610fa79061182a565b60405180910390fd5b8091505092915050565b604051806107800160405280603c90602082028036833780820191505090505090565b600081359050610fec81611a82565b92915050565b600082601f83011261100357600080fd5b813561101661101182611908565b6118db565b9150818183526020840193506020810190508360005b8381101561105c57813586016110428882611134565b84526020840193506020830192505060018101905061102c565b5050505092915050565b60008083601f84011261107857600080fd5b8235905067ffffffffffffffff81111561109157600080fd5b602083019150836107808202830111156110aa57600080fd5b9250929050565b600082601f8301126110c257600080fd5b81356110d56110d082611930565b6118db565b915081818352602084019350602081019050838560208402820111156110fa57600080fd5b60005b8381101561112a57816111108882611284565b8452602084019350602083019250506001810190506110fd565b5050505092915050565b600082601f83011261114557600080fd5b813561115861115382611958565b6118db565b9150818183526020840193506020810190508385602084028201111561117d57600080fd5b60005b838110156111ad57816111938882611299565b845260208401935060208301925050600181019050611180565b5050505092915050565b600082601f8301126111c857600080fd5b81356111db6111d682611980565b6118db565b9150818183526020840193506020810190508385602084028201111561120057600080fd5b60005b83811015611230578161121688826112c3565b845260208401935060208301925050600181019050611203565b5050505092915050565b60008083601f84011261124c57600080fd5b8235905067ffffffffffffffff81111561126557600080fd5b60208301915083602082028301111561127d57600080fd5b9250929050565b60008135905061129381611a99565b92915050565b6000813590506112a881611ab0565b92915050565b6000813590506112bd81611ac7565b92915050565b6000813590506112d281611ade565b92915050565b6000813590506112e781611af5565b92915050565b6000602082840312156112ff57600080fd5b600061130d84828501610fdd565b91505092915050565b60006020828403121561132857600080fd5b600082013567ffffffffffffffff81111561134257600080fd5b61134e84828501610ff2565b91505092915050565b6000806000806040858703121561136d57600080fd5b600085013567ffffffffffffffff81111561138757600080fd5b61139387828801611066565b9450945050602085013567ffffffffffffffff8111156113b257600080fd5b6113be8782880161123a565b925092505092959194509250565b6000602082840312156113de57600080fd5b600082013567ffffffffffffffff8111156113f857600080fd5b611404848285016110b1565b91505092915050565b6000806040838503121561142057600080fd5b600083013567ffffffffffffffff81111561143a57600080fd5b611446858286016110b1565b9250506020611457858286016112d8565b9150509250929050565b60006020828403121561147357600080fd5b600082013567ffffffffffffffff81111561148d57600080fd5b611499848285016111b7565b91505092915050565b6000602082840312156114b457600080fd5b60006114c2848285016112ae565b91505092915050565b6000602082840312156114dd57600080fd5b60006114eb848285016112d8565b91505092915050565b6000806040838503121561150757600080fd5b6000611515858286016112d8565b925050602083013567ffffffffffffffff81111561153257600080fd5b61153e85828601611134565b9150509250929050565b611551816119c4565b82525050565b611560816119e3565b82525050565b6000611571826119a8565b61157b81856119b3565b935061158b818560208601611a3e565b61159481611a71565b840191505092915050565b60006115ac6018836119b3565b91507f4e6577206f776e65722063616e6e6f74206265203078302e00000000000000006000830152602082019050919050565b60006115ec601e836119b3565b91507f4e6f726d616c697a6174696f6e206973206e6f742072657175697265642e00006000830152602082019050919050565b600061162c601d836119b3565b91507f41206665617475726520696e64657820697320746f6f206c617267652e0000006000830152602082019050919050565b600061166c6021836119b3565b91507f5369676e6564536166654d6174683a206164646974696f6e206f766572666c6f60008301527f77000000000000000000000000000000000000000000000000000000000000006020830152604082019050919050565b60006116d26018836119b3565b91507f53656e646572206973206e6f7420746865206f776e65722e00000000000000006000830152602082019050919050565b60006117126019836119b3565b91507f4e6f7420616c6c20696e646963657320617265203e3d20302e000000000000006000830152602082019050919050565b61174e81611a10565b82525050565b61175d81611a1a565b82525050565b61176c81611a2a565b82525050565b60006020820190506117876000830184611548565b92915050565b60006020820190506117a26000830184611557565b92915050565b600060208201905081810360008301526117c28184611566565b905092915050565b600060208201905081810360008301526117e38161159f565b9050919050565b60006020820190508181036000830152611803816115df565b9050919050565b600060208201905081810360008301526118238161161f565b9050919050565b600060208201905081810360008301526118438161165f565b9050919050565b60006020820190508181036000830152611863816116c5565b9050919050565b6000602082019050818103600083015261188381611705565b9050919050565b600060208201905061189f6000830184611745565b92915050565b60006020820190506118ba6000830184611754565b92915050565b60006020820190506118d56000830184611763565b92915050565b6000604051905081810181811067ffffffffffffffff821117156118fe57600080fd5b8060405250919050565b600067ffffffffffffffff82111561191f57600080fd5b602082029050602081019050919050565b600067ffffffffffffffff82111561194757600080fd5b602082029050602081019050919050565b600067ffffffffffffffff82111561196f57600080fd5b602082029050602081019050919050565b600067ffffffffffffffff82111561199757600080fd5b602082029050602081019050919050565b600081519050919050565b600082825260208201905092915050565b60006119cf826119f0565b9050919050565b60008160070b9050919050565b60008160090b9050919050565b600073ffffffffffffffffffffffffffffffffffffffff82169050919050565b6000819050919050565b600063ffffffff82169050919050565b600067ffffffffffffffff82169050919050565b60005b83811015611a5c578082015181840152602081019050611a41565b83811115611a6b576000848401525b50505050565b6000601f19601f8301169050919050565b611a8b816119c4565b8114611a9657600080fd5b50565b611aa2816119d6565b8114611aad57600080fd5b50565b611ab9816119e3565b8114611ac457600080fd5b50565b611ad081611a10565b8114611adb57600080fd5b50565b611ae781611a1a565b8114611af257600080fd5b50565b611afe81611a2a565b8114611b0957600080fd5b5056fea264697066735822122022e9aef6b161d4a89d5b3d508d81e4415acce1ade253ea54b3f803dd3ec9b3ea64736f6c63430006080033",
  "immutableReferences": {},
  "source": "// SPDX-License-Identifier: MIT\npragma solidity >=0.4.22 <0.9.0;\npragma experimental ABIEncoderV2;\n\nimport {Classifier64} from \"./Classifier.sol\";\n\n/**\n * A Perceptron where the data given for updating and predicting is sparse.\n * `update` and `predict` methods take `data` that holds the indices of the features that are present.\n */\ncontract SparsePerceptron is Classifier64 {\n\n    /**\n     * The weights for the model.\n     * Multiplied by `toFloat`.\n     */\n    mapping(uint64 => int80) public weights;\n\n    /**\n     * The bias to add to the multiplication of the weights and the data.\n     * Multiplied by `toFloat`.\n     */\n    int80 public intercept;\n\n    /**\n     * The amount of impact that new training data has to the weights.\n     * Multiplied by `toFloat`.\n     */\n    uint32 public learningRate;\n\n    /**\n     * @param _classifications The classifications supported by the model.\n     * @param _weights The weights for the model. Each multiplied by `toFloat`.\n     * @param _intercept The bias to add to the multiplication of the weights and the data. Multiplied by `toFloat`.\n     * @param _learningRate (Optional, defaults to 1). The amount of impact that new training data has to the weights.\n     Multiplied by `toFloat`.\n     */\n    constructor(\n        string[] memory _classifications,\n        int80[] memory _weights,\n        int80 _intercept,\n        uint32 _learningRate\n    ) Classifier64(_classifications) public {\n        intercept = _intercept;\n        learningRate = _learningRate;\n\n        require(_weights.length < 2**64 - 1, \"Too many weights given.\");\n        for (uint64 i = 0; i < _weights.length; ++i) {\n            weights[i] = _weights[i];\n        }\n    }\n\n    /**\n     * Initialize weights for the model.\n     * Made to be called just after the contract is created and never again.\n     * @param startIndex The index to start placing `_weights` into the model's weights.\n     * @param _weights The weights to set for the model.\n     */\n    function initializeWeights(uint64 startIndex, int80[] memory _weights) public onlyOwner {\n        for (uint64 i = 0; i < _weights.length; ++i) {\n            weights[startIndex + i] = _weights[i];\n        }\n    }\n\n    /**\n     * Initialize sparse weights for the model.\n     * Made to be called just after the contract is created and never again.\n     * @param _weights A sparse representation of the weights.\n     * Each innermost array is a tuple of the feature index and the weight for that feature.\n     */\n    function initializeSparseWeights(int80[][] memory _weights) public onlyOwner {\n        for (uint i = 0; i < _weights.length; ++i) {\n            int80 featureIndex = _weights[i][0];\n            require(featureIndex < 2 ** 64, \"A feature index is too large.\");\n            weights[uint64(featureIndex)] = _weights[i][1];\n        }\n    }\n\n    function norm(int64[] memory /* data */) public override pure returns (uint) {\n        revert(\"Normalization is not required.\");\n    }\n\n    function predict(int64[] memory data) public override view returns (uint64) {\n        int m = intercept;\n        for (uint i = 0; i < data.length; ++i) {\n            // `update` assumes this check is done.\n            require(data[i] >= 0, \"Not all indices are >= 0.\");\n            m = m.add(weights[uint64(data[i])]);\n        }\n        if (m <= 0) {\n            return 0;\n        } else {\n            return 1;\n        }\n    }\n\n    function update(int64[] memory data, uint64 classification) public override payable returns (uint64) {\n        // `data` holds the indices of the features that are present.\n        uint64 prediction = predict(data);\n        if (prediction != classification) {\n            // Update model.\n            // predict checks each data[i] >= 0.\n            uint i;\n            uint len = data.length;\n            if (classification > 0) {\n                // sign = 1\n                for(i = 0; i < len; ++i) {\n                    weights[uint64(data[i])] += learningRate;\n                }\n            } else {\n                // sign = -1\n                for(i = 0; i < len; ++i) {\n                    weights[uint64(data[i])] -= learningRate;\n                }\n            }\n            return 1;\n        }\n        return 0;\n    }\n\n    /**\n     * Evaluate a batch.\n     *\n     * Force samples to have a size of 60 because about 78% of the IMDB test data has less than 60 tokens. If the sample has less than 60 unique tokens, then use a value > weights.length.\n     *\n     * @return numCorrect The number correct in the batch.\n     */\n    function evaluateBatch(uint24[60][] calldata dataBatch, uint64[] calldata _classifications) external view returns (uint numCorrect) {\n        numCorrect = 0;\n        uint len = dataBatch.length;\n        uint i;\n        uint dataLen;\n        uint24[60] memory data;\n        int80 prediction;\n        for (uint dataIndex = 0; dataIndex < len; ++dataIndex) {\n            data = dataBatch[dataIndex];\n            // Re-implement prediction for speed and to handle the type of data not matching.\n            prediction = intercept;\n            dataLen = data.length;\n            for (i = 0; i < dataLen; ++i) {\n                prediction += weights[data[i]];\n            }\n            if (prediction <= 0) {\n                prediction = 0;\n            } else {\n                prediction = 1;\n            }\n\n            if (prediction == _classifications[dataIndex]) {\n                numCorrect += 1;\n            }\n        }\n    }\n}\n",
  "sourcePath": "/home/starlord/Desktop/DeAi/contracts/Classifiers/SparsePerceptron.sol",
  "compiler": {
    "name": "solc",
    "version": "0.6.8+commit.0bbfe453.Emscripten.clang"
  },
  "schemaVersion": "3.4.1",
  "updatedAt": "2021-05-30T14:25:34.786Z",
  "networkType": "ethereum",
  "devdoc": {
    "methods": {
      "addFeatureIndices(uint32[])": {
        "params": {
          "_featureIndices": "The feature indices to append to the array held by this contract."
        }
      },
      "constructor": {
        "params": {
          "_classifications": "The classifications supported by the model.",
          "_intercept": "The bias to add to the multiplication of the weights and the data. Multiplied by `toFloat`.",
          "_learningRate": "(Optional, defaults to 1). The amount of impact that new training data has to the weights. Multiplied by `toFloat`.",
          "_weights": "The weights for the model. Each multiplied by `toFloat`."
        }
      },
      "evaluateBatch(uint24[60][],uint64[])": {
        "returns": {
          "numCorrect": "The number correct in the batch."
        }
      },
      "getNumClassifications()": {
        "returns": {
          "_0": "The number of possible classifications that can be predicted."
        }
      },
      "getNumFeatureIndices()": {
        "returns": {
          "_0": "The number of feature indices to use. 0 means to use all feature from the encoding."
        }
      },
      "initializeSparseWeights(int80[][])": {
        "params": {
          "_weights": "A sparse representation of the weights. Each innermost array is a tuple of the feature index and the weight for that feature."
        }
      },
      "initializeWeights(uint64,int80[])": {
        "params": {
          "_weights": "The weights to set for the model.",
          "startIndex": "The index to start placing `_weights` into the model's weights."
        }
      }
    }
  },
  "userdoc": {
    "methods": {
      "addFeatureIndices(uint32[])": {
        "notice": "Add more feature indices to take from the encoded result. Made to be called just after the contract is created and never again."
      },
      "evaluateBatch(uint24[60][],uint64[])": {
        "notice": "Evaluate a batch.     * Force samples to have a size of 60 because about 78% of the IMDB test data has less than 60 tokens. If the sample has less than 60 unique tokens, then use a value > weights.length."
      },
      "initializeSparseWeights(int80[][])": {
        "notice": "Initialize sparse weights for the model. Made to be called just after the contract is created and never again."
      },
      "initializeWeights(uint64,int80[])": {
        "notice": "Initialize weights for the model. Made to be called just after the contract is created and never again."
      }
    },
    "notice": "A Perceptron where the data given for updating and predicting is sparse. `update` and `predict` methods take `data` that holds the indices of the features that are present."
  }
}