{
  "contractName": "Classifier",
  "abi": [
    {
      "inputs": [
        {
          "internalType": "string[]",
          "name": "_classifications",
          "type": "string[]"
        }
      ],
      "stateMutability": "nonpayable",
      "type": "constructor"
    },
    {
      "inputs": [
        {
          "internalType": "uint256",
          "name": "",
          "type": "uint256"
        }
      ],
      "name": "classifications",
      "outputs": [
        {
          "internalType": "string",
          "name": "",
          "type": "string"
        }
      ],
      "stateMutability": "view",
      "type": "function"
    },
    {
      "inputs": [
        {
          "internalType": "uint256",
          "name": "",
          "type": "uint256"
        }
      ],
      "name": "featureIndices",
      "outputs": [
        {
          "internalType": "uint32",
          "name": "",
          "type": "uint32"
        }
      ],
      "stateMutability": "view",
      "type": "function"
    },
    {
      "inputs": [],
      "name": "owner",
      "outputs": [
        {
          "internalType": "address",
          "name": "",
          "type": "address"
        }
      ],
      "stateMutability": "view",
      "type": "function"
    },
    {
      "inputs": [
        {
          "internalType": "address",
          "name": "newOwner",
          "type": "address"
        }
      ],
      "name": "transferOwnership",
      "outputs": [],
      "stateMutability": "nonpayable",
      "type": "function"
    },
    {
      "inputs": [],
      "name": "getNumClassifications",
      "outputs": [
        {
          "internalType": "uint256",
          "name": "",
          "type": "uint256"
        }
      ],
      "stateMutability": "view",
      "type": "function"
    },
    {
      "inputs": [
        {
          "internalType": "uint32[]",
          "name": "_featureIndices",
          "type": "uint32[]"
        }
      ],
      "name": "addFeatureIndices",
      "outputs": [],
      "stateMutability": "nonpayable",
      "type": "function"
    },
    {
      "inputs": [],
      "name": "getNumFeatureIndices",
      "outputs": [
        {
          "internalType": "uint256",
          "name": "",
          "type": "uint256"
        }
      ],
      "stateMutability": "view",
      "type": "function"
    }
  ],
  "bytecode": "0x60806040523480156200001157600080fd5b5060405162000d7b38038062000d7b833981810160405281019062000037919062000303565b336000806101000a81548173ffffffffffffffffffffffffffffffffffffffff021916908373ffffffffffffffffffffffffffffffffffffffff16021790555080600190805190602001906200008f92919062000097565b505062000402565b828054828255906000526020600020908101928215620000eb579160200282015b82811115620000ea578251829080519060200190620000d9929190620000fe565b5091602001919060010190620000b8565b5b509050620000fa919062000185565b5090565b828054600181600116156101000203166002900490600052602060002090601f016020900481019282601f106200014157805160ff191683800117855562000172565b8280016001018555821562000172579182015b828111156200017157825182559160200191906001019062000154565b5b509050620001819190620001b6565b5090565b620001b391905b80821115620001af5760008181620001a59190620001de565b506001016200018c565b5090565b90565b620001db91905b80821115620001d7576000816000905550600101620001bd565b5090565b90565b50805460018160011615610100020316600290046000825580601f1062000206575062000227565b601f016020900490600052602060002090810190620002269190620001b6565b5b50565b600082601f8301126200023c57600080fd5b8151620002536200024d8262000376565b62000348565b9150818183526020840193506020810190508360005b838110156200029d5781518601620002828882620002a7565b84526020840193506020830192505060018101905062000269565b5050505092915050565b600082601f830112620002b957600080fd5b8151620002d0620002ca826200039f565b62000348565b91508082526020830160208301858383011115620002ed57600080fd5b620002fa838284620003cc565b50505092915050565b6000602082840312156200031657600080fd5b600082015167ffffffffffffffff8111156200033157600080fd5b6200033f848285016200022a565b91505092915050565b6000604051905081810181811067ffffffffffffffff821117156200036c57600080fd5b8060405250919050565b600067ffffffffffffffff8211156200038e57600080fd5b602082029050602081019050919050565b600067ffffffffffffffff821115620003b757600080fd5b601f19601f8301169050602081019050919050565b60005b83811015620003ec578082015181840152602081019050620003cf565b83811115620003fc576000848401525b50505050565b61096980620004126000396000f3fe608060405234801561001057600080fd5b506004361061007d5760003560e01c80638da5cb5b1161005b5780638da5cb5b146100ec578063a88949301461010a578063e2c009bf1461013a578063f2fde38b146101585761007d565b80630a6d371d1461008257806310822e92146100b257806382318482146100d0575b600080fd5b61009c6004803603810190610097919061062b565b610174565b6040516100a991906107d2565b60405180910390f35b6100ba6101ab565b6040516100c791906107b7565b60405180910390f35b6100ea60048036038101906100e591906105ea565b6101b8565b005b6100f46102d2565b604051610101919061073a565b60405180910390f35b610124600480360381019061011f919061062b565b6102f7565b6040516101319190610755565b60405180910390f35b6101426103b0565b60405161014f91906107b7565b60405180910390f35b610172600480360381019061016d91906105c1565b6103bd565b005b6002818154811061018157fe5b9060005260206000209060089182820401919006600402915054906101000a900463ffffffff1681565b6000600180549050905090565b6000809054906101000a900473ffffffffffffffffffffffffffffffffffffffff1673ffffffffffffffffffffffffffffffffffffffff163373ffffffffffffffffffffffffffffffffffffffff1614610247576040517f08c379a000000000000000000000000000000000000000000000000000000000815260040161023e90610797565b60405180910390fd5b60008090505b81518163ffffffff1610156102ce576002828263ffffffff168151811061027057fe5b602002602001015190806001815401808255809150506001900390600052602060002090600891828204019190066004029091909190916101000a81548163ffffffff021916908363ffffffff16021790555080600101905061024d565b5050565b6000809054906101000a900473ffffffffffffffffffffffffffffffffffffffff1681565b6001818154811061030457fe5b906000526020600020016000915090508054600181600116156101000203166002900480601f0160208091040260200160405190810160405280929190818152602001828054600181600116156101000203166002900480156103a85780601f1061037d576101008083540402835291602001916103a8565b820191906000526020600020905b81548152906001019060200180831161038b57829003601f168201915b505050505081565b6000600280549050905090565b6000809054906101000a900473ffffffffffffffffffffffffffffffffffffffff1673ffffffffffffffffffffffffffffffffffffffff163373ffffffffffffffffffffffffffffffffffffffff161461044c576040517f08c379a000000000000000000000000000000000000000000000000000000000815260040161044390610797565b60405180910390fd5b600073ffffffffffffffffffffffffffffffffffffffff168173ffffffffffffffffffffffffffffffffffffffff1614156104bc576040517f08c379a00000000000000000000000000000000000000000000000000000000081526004016104b390610777565b60405180910390fd5b806000806101000a81548173ffffffffffffffffffffffffffffffffffffffff021916908373ffffffffffffffffffffffffffffffffffffffff16021790555050565b60008135905061050e816108ee565b92915050565b600082601f83011261052557600080fd5b81356105386105338261081a565b6107ed565b9150818183526020840193506020810190508385602084028201111561055d57600080fd5b60005b8381101561058d578161057388826105ac565b845260208401935060208301925050600181019050610560565b5050505092915050565b6000813590506105a681610905565b92915050565b6000813590506105bb8161091c565b92915050565b6000602082840312156105d357600080fd5b60006105e1848285016104ff565b91505092915050565b6000602082840312156105fc57600080fd5b600082013567ffffffffffffffff81111561061657600080fd5b61062284828501610514565b91505092915050565b60006020828403121561063d57600080fd5b600061064b84828501610597565b91505092915050565b61065d8161085e565b82525050565b600061066e82610842565b610678818561084d565b93506106888185602086016108aa565b610691816108dd565b840191505092915050565b60006106a960188361084d565b91507f4e6577206f776e65722063616e6e6f74206265203078302e00000000000000006000830152602082019050919050565b60006106e960188361084d565b91507f53656e646572206973206e6f7420746865206f776e65722e00000000000000006000830152602082019050919050565b61072581610890565b82525050565b6107348161089a565b82525050565b600060208201905061074f6000830184610654565b92915050565b6000602082019050818103600083015261076f8184610663565b905092915050565b600060208201905081810360008301526107908161069c565b9050919050565b600060208201905081810360008301526107b0816106dc565b9050919050565b60006020820190506107cc600083018461071c565b92915050565b60006020820190506107e7600083018461072b565b92915050565b6000604051905081810181811067ffffffffffffffff8211171561081057600080fd5b8060405250919050565b600067ffffffffffffffff82111561083157600080fd5b602082029050602081019050919050565b600081519050919050565b600082825260208201905092915050565b600061086982610870565b9050919050565b600073ffffffffffffffffffffffffffffffffffffffff82169050919050565b6000819050919050565b600063ffffffff82169050919050565b60005b838110156108c85780820151818401526020810190506108ad565b838111156108d7576000848401525b50505050565b6000601f19601f8301169050919050565b6108f78161085e565b811461090257600080fd5b50565b61090e81610890565b811461091957600080fd5b50565b6109258161089a565b811461093057600080fd5b5056fea264697066735822122030bb3eb54c7ce7d316d2f59f9d9ed240e78cceea0f0fc3f8a33e0f7b17e1cac864736f6c63430006080033",
  "immutableReferences": {},
  "source": "// SPDX-License-Identifier: MIT\npragma solidity >=0.4.22 <0.9.0;\npragma experimental ABIEncoderV2;\n\nimport \"../../lib/SafeMath.sol\";\nimport \"../../lib/SignedSafeMath.sol\";\n\nimport {Ownable} from \"../ownership/Ownable.sol\";\n\n/**\n * A classifier that can take a data sample as input and return a predict classification/label for the data.\n */\ncontract Classifier is Ownable {\n    /**\n     * The possible classifications that can be predicted.\n     * Prediction results are indices to values in this array.\n     */\n    string[] public classifications;\n\n    /**\n     * The indices of the features to use from some well-known shared encoder.\n     * If it is empty, then all features are used.\n     */\n    uint32[] public featureIndices;\n\n    /**\n     * Initialize a classifier.\n     * @param _classifications The possible classifications that can be predicted.\n     */\n    constructor(string[] memory _classifications)\n    Ownable()\n    public {\n        classifications = _classifications;\n    }\n\n    /**\n     * @return The number of possible classifications that can be predicted.\n     */\n    function getNumClassifications() public view returns (uint) {\n        return classifications.length;\n    }\n\n    /**\n     * Add more feature indices to take from the encoded result.\n     * Made to be called just after the contract is created and never again.\n     * @param _featureIndices The feature indices to append to the array held by this contract.\n     */\n    function addFeatureIndices(uint32[] memory _featureIndices) public onlyOwner {\n        for (uint32 i = 0; i < _featureIndices.length; ++i) {\n            featureIndices.push(_featureIndices[i]);\n        }\n    }\n\n    /**\n     * @return The number of feature indices to use. 0 means to use all feature from the encoding.\n     */\n    function getNumFeatureIndices() public view returns (uint) {\n        return featureIndices.length;\n    }\n}\n\n/**\n * A `Classifier` for data with 64-bit values.\n */\n// Use an abstract contract instead of an interface so that we can enforce internal functions\n// and not be forced to have some external.\nabstract contract Classifier64 is Classifier {\n    using SafeMath for uint256;\n    using SignedSafeMath for int256;\n\n    /**\n     * Number of decimal places precision.\n     * Since Solidity does not support floating point numbers,\n     * we assume certain numbers have been multiplied by this value.\n     */\n    uint32 constant public toFloat = 1E9;\n\n    constructor(string[] memory _classifications)\n    Classifier(_classifications)\n    internal {\n        // solium-disable-previous-line no-empty-blocks\n    }\n\n    /**\n     * @param data A single sample.\n     * @return The normalization scalar for `data`.\n     */\n    function norm(int64[] memory data) public virtual pure returns (uint);\n\n    /**\n     * @param data A single sample.\n     * @return The predicted classification/label for `data`.\n     */\n    function predict(int64[] memory data) public virtual view returns (uint64);\n\n    /**\n     * Train the classifier with one data sample.\n     *\n     * @param data The training data or features.\n     * @param classification The label for `data`.\n     */\n    function update(int64[] memory data, uint64 classification) public virtual;\n}\n",
  "sourcePath": "/home/starlord/Desktop/DeAi/contracts/Classifiers/Classifier.sol",
  "compiler": {
    "name": "solc",
    "version": "0.6.8+commit.0bbfe453.Emscripten.clang"
  },
  "schemaVersion": "3.4.1",
  "updatedAt": "2021-05-28T14:43:39.574Z",
  "devdoc": {
    "methods": {
      "addFeatureIndices(uint32[])": {
        "params": {
          "_featureIndices": "The feature indices to append to the array held by this contract."
        }
      },
      "constructor": {
        "params": {
          "_classifications": "The possible classifications that can be predicted."
        }
      },
      "getNumClassifications()": {
        "returns": {
          "_0": "The number of possible classifications that can be predicted."
        }
      },
      "getNumFeatureIndices()": {
        "returns": {
          "_0": "The number of feature indices to use. 0 means to use all feature from the encoding."
        }
      }
    }
  },
  "userdoc": {
    "methods": {
      "addFeatureIndices(uint32[])": {
        "notice": "Add more feature indices to take from the encoded result. Made to be called just after the contract is created and never again."
      },
      "constructor": "Initialize a classifier."
    },
    "notice": "A classifier that can take a data sample as input and return a predict classification/label for the data."
  }
}