{
  "contractName": "Perceptron",
  "abi": [
    {
      "inputs": [
        {
          "internalType": "string[]",
          "name": "_classifications",
          "type": "string[]"
        },
        {
          "internalType": "int80[]",
          "name": "_weights",
          "type": "int80[]"
        },
        {
          "internalType": "int80",
          "name": "_intercept",
          "type": "int80"
        },
        {
          "internalType": "uint32",
          "name": "_learningRate",
          "type": "uint32"
        }
      ],
      "stateMutability": "nonpayable",
      "type": "constructor"
    },
    {
      "inputs": [
        {
          "internalType": "uint32[]",
          "name": "_featureIndices",
          "type": "uint32[]"
        }
      ],
      "name": "addFeatureIndices",
      "outputs": [],
      "stateMutability": "nonpayable",
      "type": "function"
    },
    {
      "inputs": [
        {
          "internalType": "uint256",
          "name": "",
          "type": "uint256"
        }
      ],
      "name": "classifications",
      "outputs": [
        {
          "internalType": "string",
          "name": "",
          "type": "string"
        }
      ],
      "stateMutability": "view",
      "type": "function",
      "constant": true
    },
    {
      "inputs": [
        {
          "internalType": "uint256",
          "name": "",
          "type": "uint256"
        }
      ],
      "name": "featureIndices",
      "outputs": [
        {
          "internalType": "uint32",
          "name": "",
          "type": "uint32"
        }
      ],
      "stateMutability": "view",
      "type": "function",
      "constant": true
    },
    {
      "inputs": [],
      "name": "getNumClassifications",
      "outputs": [
        {
          "internalType": "uint256",
          "name": "",
          "type": "uint256"
        }
      ],
      "stateMutability": "view",
      "type": "function",
      "constant": true
    },
    {
      "inputs": [],
      "name": "getNumFeatureIndices",
      "outputs": [
        {
          "internalType": "uint256",
          "name": "",
          "type": "uint256"
        }
      ],
      "stateMutability": "view",
      "type": "function",
      "constant": true
    },
    {
      "inputs": [],
      "name": "intercept",
      "outputs": [
        {
          "internalType": "int80",
          "name": "",
          "type": "int80"
        }
      ],
      "stateMutability": "view",
      "type": "function",
      "constant": true
    },
    {
      "inputs": [],
      "name": "learningRate",
      "outputs": [
        {
          "internalType": "uint32",
          "name": "",
          "type": "uint32"
        }
      ],
      "stateMutability": "view",
      "type": "function",
      "constant": true
    },
    {
      "inputs": [],
      "name": "owner",
      "outputs": [
        {
          "internalType": "address",
          "name": "",
          "type": "address"
        }
      ],
      "stateMutability": "view",
      "type": "function",
      "constant": true
    },
    {
      "inputs": [],
      "name": "toFloat",
      "outputs": [
        {
          "internalType": "uint32",
          "name": "",
          "type": "uint32"
        }
      ],
      "stateMutability": "view",
      "type": "function",
      "constant": true
    },
    {
      "inputs": [
        {
          "internalType": "address",
          "name": "newOwner",
          "type": "address"
        }
      ],
      "name": "transferOwnership",
      "outputs": [],
      "stateMutability": "nonpayable",
      "type": "function"
    },
    {
      "inputs": [
        {
          "internalType": "uint256",
          "name": "",
          "type": "uint256"
        }
      ],
      "name": "weights",
      "outputs": [
        {
          "internalType": "int80",
          "name": "",
          "type": "int80"
        }
      ],
      "stateMutability": "view",
      "type": "function",
      "constant": true
    },
    {
      "inputs": [
        {
          "internalType": "int80[]",
          "name": "_weights",
          "type": "int80[]"
        }
      ],
      "name": "initializeWeights",
      "outputs": [],
      "stateMutability": "nonpayable",
      "type": "function"
    },
    {
      "inputs": [
        {
          "internalType": "int64[]",
          "name": "data",
          "type": "int64[]"
        }
      ],
      "name": "norm",
      "outputs": [
        {
          "internalType": "uint256",
          "name": "result",
          "type": "uint256"
        }
      ],
      "stateMutability": "pure",
      "type": "function",
      "constant": true
    },
    {
      "inputs": [
        {
          "internalType": "int64[]",
          "name": "data",
          "type": "int64[]"
        }
      ],
      "name": "predict",
      "outputs": [
        {
          "internalType": "uint64",
          "name": "",
          "type": "uint64"
        }
      ],
      "stateMutability": "view",
      "type": "function",
      "constant": true
    },
    {
      "inputs": [
        {
          "internalType": "int64[]",
          "name": "data",
          "type": "int64[]"
        },
        {
          "internalType": "uint64",
          "name": "classification",
          "type": "uint64"
        }
      ],
      "name": "update",
      "outputs": [
        {
          "internalType": "uint64",
          "name": "",
          "type": "uint64"
        }
      ],
      "stateMutability": "payable",
      "type": "function",
      "payable": true
    }
  ],
  "bytecode": "0x60806040523480156200001157600080fd5b506040516200243338038062002433833981810160405281019062000037919062000585565b8380336000806101000a81548173ffffffffffffffffffffffffffffffffffffffff021916908373ffffffffffffffffffffffffffffffffffffffff16021790555080600190805190602001906200009192919062000156565b50505081600460006101000a81548169ffffffffffffffffffff021916908360090b69ffffffffffffffffffff160217905550806004600a6101000a81548163ffffffff021916908363ffffffff16021790555067ffffffffffffffff83511062000133576040517f08c379a00000000000000000000000000000000000000000000000000000000081526004016200012a9062000665565b60405180910390fd5b82600390805190602001906200014b929190620001bd565b5050505050620007cc565b828054828255906000526020600020908101928215620001aa579160200282015b82811115620001a95782518290805190602001906200019892919062000289565b509160200191906001019062000177565b5b509050620001b9919062000310565b5090565b82805482825590600052602060002090600201600390048101928215620002765791602002820160005b838211156200023c57835183826101000a81548169ffffffffffffffffffff021916908360090b69ffffffffffffffffffff1602179055509260200192600a01602081600901049283019260010302620001e7565b8015620002745782816101000a81549069ffffffffffffffffffff0219169055600a016020816009010492830192600103026200023c565b505b50905062000285919062000341565b5090565b828054600181600116156101000203166002900490600052602060002090601f016020900481019282601f10620002cc57805160ff1916838001178555620002fd565b82800160010185558215620002fd579182015b82811115620002fc578251825591602001919060010190620002df565b5b5090506200030c91906200037d565b5090565b6200033e91905b808211156200033a5760008181620003309190620003a5565b5060010162000317565b5090565b90565b6200037a91905b808211156200037657600081816101000a81549069ffffffffffffffffffff02191690555060010162000348565b5090565b90565b620003a291905b808211156200039e57600081600090555060010162000384565b5090565b90565b50805460018160011615610100020316600290046000825580601f10620003cd5750620003ee565b601f016020900490600052602060002090810190620003ed91906200037d565b5b50565b600082601f8301126200040357600080fd5b81516200041a6200041482620006b5565b62000687565b915081818352602084019350602081019050838560208402820111156200044057600080fd5b60005b83811015620004745781620004598882620004fb565b84526020840193506020830192505060018101905062000443565b5050505092915050565b600082601f8301126200049057600080fd5b8151620004a7620004a182620006de565b62000687565b9150818183526020840193506020810190508360005b83811015620004f15781518601620004d6888262000512565b845260208401935060208301925050600181019050620004bd565b5050505092915050565b6000815190506200050c8162000798565b92915050565b600082601f8301126200052457600080fd5b81516200053b620005358262000707565b62000687565b915080825260208301602083018583830111156200055857600080fd5b6200056583828462000762565b50505092915050565b6000815190506200057f81620007b2565b92915050565b600080600080608085870312156200059c57600080fd5b600085015167ffffffffffffffff811115620005b757600080fd5b620005c5878288016200047e565b945050602085015167ffffffffffffffff811115620005e357600080fd5b620005f187828801620003f1565b93505060406200060487828801620004fb565b925050606062000617878288016200056e565b91505092959194509250565b60006200063260178362000734565b91507f546f6f206d616e79207765696768747320676976656e2e0000000000000000006000830152602082019050919050565b60006020820190508181036000830152620006808162000623565b9050919050565b6000604051905081810181811067ffffffffffffffff82111715620006ab57600080fd5b8060405250919050565b600067ffffffffffffffff821115620006cd57600080fd5b602082029050602081019050919050565b600067ffffffffffffffff821115620006f657600080fd5b602082029050602081019050919050565b600067ffffffffffffffff8211156200071f57600080fd5b601f19601f8301169050602081019050919050565b600082825260208201905092915050565b60008160090b9050919050565b600063ffffffff82169050919050565b60005b838110156200078257808201518184015260208101905062000765565b8381111562000792576000848401525b50505050565b620007a38162000745565b8114620007af57600080fd5b50565b620007bd8162000752565b8114620007c957600080fd5b50565b611c5780620007dc6000396000f3fe6080604052600436106100e85760003560e01c80635f7066a21161008a578063b5f163ff11610059578063b5f163ff1461030a578063bd7a1d6114610347578063e2c009bf14610377578063f2fde38b146103a2576100e8565b80635f7066a21461023c57806382318482146102795780638da5cb5b146102a2578063a8894930146102cd576100e8565b80631b72bc75116100c65780631b72bc7514610180578063375a255a146101ab5780633766bf19146101d457806349897d28146101ff576100e8565b80630a6d371d146100ed57806310822e921461012a57806319c1376714610155575b600080fd5b3480156100f957600080fd5b50610114600480360381019061010f9190611504565b6103cb565b60405161012191906119e2565b60405180910390f35b34801561013657600080fd5b5061013f610402565b60405161014c91906119c7565b60405180910390f35b34801561016157600080fd5b5061016a61040f565b604051610177919061188a565b60405180910390f35b34801561018c57600080fd5b50610195610422565b6040516101a291906119e2565b60405180910390f35b3480156101b757600080fd5b506101d260048036038101906101cd9190611482565b61042a565b005b3480156101e057600080fd5b506101e961055b565b6040516101f691906119e2565b60405180910390f35b34801561020b57600080fd5b50610226600480360381019061022191906113ed565b610571565b60405161023391906119c7565b60405180910390f35b34801561024857600080fd5b50610263600480360381019061025e91906113ed565b6105e7565b60405161027091906119fd565b60405180910390f35b34801561028557600080fd5b506102a0600480360381019061029b91906114c3565b6106ee565b005b3480156102ae57600080fd5b506102b7610808565b6040516102c4919061186f565b60405180910390f35b3480156102d957600080fd5b506102f460048036038101906102ef9190611504565b61082d565b60405161030191906118a5565b60405180910390f35b34801561031657600080fd5b50610331600480360381019061032c9190611504565b6108e6565b60405161033e919061188a565b60405180910390f35b610361600480360381019061035c919061142e565b61091a565b60405161036e91906119fd565b60405180910390f35b34801561038357600080fd5b5061038c610ccc565b60405161039991906119c7565b60405180910390f35b3480156103ae57600080fd5b506103c960048036038101906103c491906113c4565b610cd9565b005b600281815481106103d857fe5b9060005260206000209060089182820401919006600402915054906101000a900463ffffffff1681565b6000600180549050905090565b600460009054906101000a900460090b81565b633b9aca0081565b6000809054906101000a900473ffffffffffffffffffffffffffffffffffffffff1673ffffffffffffffffffffffffffffffffffffffff163373ffffffffffffffffffffffffffffffffffffffff16146104b9576040517f08c379a00000000000000000000000000000000000000000000000000000000081526004016104b090611947565b60405180910390fd5b60008090505b81518167ffffffffffffffff161015610557576003828267ffffffffffffffff16815181106104ea57fe5b60200260200101519080600181540180825580915050600190039060005260206000209060039182820401919006600a029091909190916101000a81548169ffffffffffffffffffff021916908360090b69ffffffffffffffffffff1602179055508060010190506104bf565b5050565b6004600a9054906101000a900463ffffffff1681565b600080905060008090505b82518110156105d6576105c983828151811061059457fe5b602002602001015160070b8483815181106105ab57fe5b602002602001015160070b02600f0b83610e1b90919063ffffffff16565b915080600101905061057c565b506105e081610e70565b9050919050565b600080600460009054906101000a900460090b60090b9050600380549050835114610647576040517f08c379a000000000000000000000000000000000000000000000000000000000815260040161063e906118e7565b60405180910390fd5b60008090505b83518110156106d0576106c36106b485838151811061066857fe5b602002602001015160070b6003848154811061068057fe5b9060005260206000209060039182820401919006600a029054906101000a900460090b60090b610ed990919063ffffffff16565b83610fd790919063ffffffff16565b915080600101905061064d565b50600081136106e35760009150506106e9565b60019150505b919050565b6000809054906101000a900473ffffffffffffffffffffffffffffffffffffffff1673ffffffffffffffffffffffffffffffffffffffff163373ffffffffffffffffffffffffffffffffffffffff161461077d576040517f08c379a000000000000000000000000000000000000000000000000000000000815260040161077490611947565b60405180910390fd5b60008090505b81518163ffffffff161015610804576002828263ffffffff16815181106107a657fe5b602002602001015190806001815401808255809150506001900390600052602060002090600891828204019190066004029091909190916101000a81548163ffffffff021916908363ffffffff160217905550806001019050610783565b5050565b6000809054906101000a900473ffffffffffffffffffffffffffffffffffffffff1681565b6001818154811061083a57fe5b906000526020600020016000915090508054600181600116156101000203166002900480601f0160208091040260200160405190810160405280929190818152602001828054600181600116156101000203166002900480156108de5780601f106108b3576101008083540402835291602001916108de565b820191906000526020600020905b8154815290600101906020018083116108c157829003601f168201915b505050505081565b600381815481106108f357fe5b9060005260206000209060039182820401919006600a02915054906101000a900460090b81565b600080835190506003805490508114610968576040517f08c379a000000000000000000000000000000000000000000000000000000000815260040161095f906118e7565b60405180910390fd5b6000600460009054906101000a900460090b60090b90506060855167ffffffffffffffff8111801561099957600080fd5b506040519080825280602002602001820160405280156109c85781602001602082028036833780820191505090505b509050600080905060008667ffffffffffffffff161115610aed5760008090505b84811015610ae75760008882815181106109ff57fe5b602002602001015160070b9050600060038381548110610a1b57fe5b9060005260206000209060039182820401919006600a029054906101000a900460090b9050610a6b610a5c83600f0b8360090b610ed990919063ffffffff16565b87610fd790919063ffffffff16565b9550633b9aca0063ffffffff166004600a9054906101000a900463ffffffff1663ffffffff168302600f0b81610a9d57fe5b058101858481518110610aac57fe5b602002602001019060090b908160090b81525050610ad8828302600f0b85610e1b90919063ffffffff16565b935050508060010190506109e9565b50610bf3565b60008090505b84811015610bf1576000888281518110610b0957fe5b602002602001015160070b9050600060038381548110610b2557fe5b9060005260206000209060039182820401919006600a029054906101000a900460090b9050610b75610b6683600f0b8360090b610ed990919063ffffffff16565b87610fd790919063ffffffff16565b9550633b9aca0063ffffffff166004600a9054906101000a900463ffffffff1663ffffffff168302600f0b81610ba757fe5b058103858481518110610bb657fe5b602002602001019060090b908160090b81525050610be2828302600f0b85610e1b90919063ffffffff16565b93505050806001019050610af3565b505b60008313610c045760009250610c09565b600192505b6000610c32633b9aca0063ffffffff16633b9aca0063ffffffff1661104f90919063ffffffff16565b905060006064633b9aca0063ffffffff1602905082818303108015610c58575080820183105b610c97576040517f08c379a0000000000000000000000000000000000000000000000000000000008152600401610c8e906119a7565b60405180910390fd5b8767ffffffffffffffff168514610cc0578360039080519060200190610cbe9291906110bf565b505b50505050505092915050565b6000600280549050905090565b6000809054906101000a900473ffffffffffffffffffffffffffffffffffffffff1673ffffffffffffffffffffffffffffffffffffffff163373ffffffffffffffffffffffffffffffffffffffff1614610d68576040517f08c379a0000000000000000000000000000000000000000000000000000000008152600401610d5f90611947565b60405180910390fd5b600073ffffffffffffffffffffffffffffffffffffffff168173ffffffffffffffffffffffffffffffffffffffff161415610dd8576040517f08c379a0000000000000000000000000000000000000000000000000000000008152600401610dcf906118c7565b60405180910390fd5b806000806101000a81548173ffffffffffffffffffffffffffffffffffffffff021916908373ffffffffffffffffffffffffffffffffffffffff16021790555050565b600080828401905083811015610e66576040517f08c379a0000000000000000000000000000000000000000000000000000000008152600401610e5d90611907565b60405180910390fd5b8091505092915050565b600080821415610e835760009050610ed4565b60038211610e945760019050610ed4565b600060026001840181610ea357fe5b0490508291505b81811015610ed257809150600281828581610ec157fe5b040181610eca57fe5b049050610eaa565b505b919050565b600080831415610eec5760009050610fd1565b7fffffffffffffffffffffffffffffffffffffffffffffffffffffffffffffffff83148015610f3a57507f800000000000000000000000000000000000000000000000000000000000000082145b15610f7a576040517f08c379a0000000000000000000000000000000000000000000000000000000008152600401610f7190611987565b60405180910390fd5b6000828402905082848281610f8b57fe5b0514610fcc576040517f08c379a0000000000000000000000000000000000000000000000000000000008152600401610fc390611987565b60405180910390fd5b809150505b92915050565b600080828401905060008312158015610ff05750838112155b80611006575060008312801561100557508381125b5b611045576040517f08c379a000000000000000000000000000000000000000000000000000000000815260040161103c90611927565b60405180910390fd5b8091505092915050565b60008083141561106257600090506110b9565b600082840290508284828161107357fe5b04146110b4576040517f08c379a00000000000000000000000000000000000000000000000000000000081526004016110ab90611967565b60405180910390fd5b809150505b92915050565b828054828255906000526020600020906002016003900481019282156111735791602002820160005b8382111561113b57835183826101000a81548169ffffffffffffffffffff021916908360090b69ffffffffffffffffffff1602179055509260200192600a016020816009010492830192600103026110e8565b80156111715782816101000a81549069ffffffffffffffffffff0219169055600a0160208160090104928301926001030261113b565b505b5090506111809190611184565b5090565b6111ba91905b808211156111b657600081816101000a81549069ffffffffffffffffffff02191690555060010161118a565b5090565b90565b6000813590506111cc81611b97565b92915050565b600082601f8301126111e357600080fd5b81356111f66111f182611a45565b611a18565b9150818183526020840193506020810190508385602084028201111561121b57600080fd5b60005b8381101561124b5781611231888261135b565b84526020840193506020830192505060018101905061121e565b5050505092915050565b600082601f83011261126657600080fd5b813561127961127482611a6d565b611a18565b9150818183526020840193506020810190508385602084028201111561129e57600080fd5b60005b838110156112ce57816112b48882611370565b8452602084019350602083019250506001810190506112a1565b5050505092915050565b600082601f8301126112e957600080fd5b81356112fc6112f782611a95565b611a18565b9150818183526020840193506020810190508385602084028201111561132157600080fd5b60005b838110156113515781611337888261139a565b845260208401935060208301925050600181019050611324565b5050505092915050565b60008135905061136a81611bae565b92915050565b60008135905061137f81611bc5565b92915050565b60008135905061139481611bdc565b92915050565b6000813590506113a981611bf3565b92915050565b6000813590506113be81611c0a565b92915050565b6000602082840312156113d657600080fd5b60006113e4848285016111bd565b91505092915050565b6000602082840312156113ff57600080fd5b600082013567ffffffffffffffff81111561141957600080fd5b611425848285016111d2565b91505092915050565b6000806040838503121561144157600080fd5b600083013567ffffffffffffffff81111561145b57600080fd5b611467858286016111d2565b9250506020611478858286016113af565b9150509250929050565b60006020828403121561149457600080fd5b600082013567ffffffffffffffff8111156114ae57600080fd5b6114ba84828501611255565b91505092915050565b6000602082840312156114d557600080fd5b600082013567ffffffffffffffff8111156114ef57600080fd5b6114fb848285016112d8565b91505092915050565b60006020828403121561151657600080fd5b600061152484828501611385565b91505092915050565b61153681611ad9565b82525050565b61154581611af8565b82525050565b600061155682611abd565b6115608185611ac8565b9350611570818560208601611b53565b61157981611b86565b840191505092915050565b6000611591601883611ac8565b91507f4e6577206f776e65722063616e6e6f74206265203078302e00000000000000006000830152602082019050919050565b60006115d1603583611ac8565b91507f5468652064617461206d7573742068617665207468652073616d652064696d6560008301527f6e73696f6e2061732074686520776569676874732e00000000000000000000006020830152604082019050919050565b6000611637601b83611ac8565b91507f536166654d6174683a206164646974696f6e206f766572666c6f7700000000006000830152602082019050919050565b6000611677602183611ac8565b91507f5369676e6564536166654d6174683a206164646974696f6e206f766572666c6f60008301527f77000000000000000000000000000000000000000000000000000000000000006020830152604082019050919050565b60006116dd601883611ac8565b91507f53656e646572206973206e6f7420746865206f776e65722e00000000000000006000830152602082019050919050565b600061171d602183611ac8565b91507f536166654d6174683a206d756c7469706c69636174696f6e206f766572666c6f60008301527f77000000000000000000000000000000000000000000000000000000000000006020830152604082019050919050565b6000611783602783611ac8565b91507f5369676e6564536166654d6174683a206d756c7469706c69636174696f6e206f60008301527f766572666c6f77000000000000000000000000000000000000000000000000006020830152604082019050919050565b60006117e9602c83611ac8565b91507f5468652070726f7669646564206461746120646f6573206e6f7420686176652060008301527f61206e6f726d206f6620312e00000000000000000000000000000000000000006020830152604082019050919050565b61184b81611b25565b82525050565b61185a81611b2f565b82525050565b61186981611b3f565b82525050565b6000602082019050611884600083018461152d565b92915050565b600060208201905061189f600083018461153c565b92915050565b600060208201905081810360008301526118bf818461154b565b905092915050565b600060208201905081810360008301526118e081611584565b9050919050565b60006020820190508181036000830152611900816115c4565b9050919050565b600060208201905081810360008301526119208161162a565b9050919050565b600060208201905081810360008301526119408161166a565b9050919050565b60006020820190508181036000830152611960816116d0565b9050919050565b6000602082019050818103600083015261198081611710565b9050919050565b600060208201905081810360008301526119a081611776565b9050919050565b600060208201905081810360008301526119c0816117dc565b9050919050565b60006020820190506119dc6000830184611842565b92915050565b60006020820190506119f76000830184611851565b92915050565b6000602082019050611a126000830184611860565b92915050565b6000604051905081810181811067ffffffffffffffff82111715611a3b57600080fd5b8060405250919050565b600067ffffffffffffffff821115611a5c57600080fd5b602082029050602081019050919050565b600067ffffffffffffffff821115611a8457600080fd5b602082029050602081019050919050565b600067ffffffffffffffff821115611aac57600080fd5b602082029050602081019050919050565b600081519050919050565b600082825260208201905092915050565b6000611ae482611b05565b9050919050565b60008160070b9050919050565b60008160090b9050919050565b600073ffffffffffffffffffffffffffffffffffffffff82169050919050565b6000819050919050565b600063ffffffff82169050919050565b600067ffffffffffffffff82169050919050565b60005b83811015611b71578082015181840152602081019050611b56565b83811115611b80576000848401525b50505050565b6000601f19601f8301169050919050565b611ba081611ad9565b8114611bab57600080fd5b50565b611bb781611aeb565b8114611bc257600080fd5b50565b611bce81611af8565b8114611bd957600080fd5b50565b611be581611b25565b8114611bf057600080fd5b50565b611bfc81611b2f565b8114611c0757600080fd5b50565b611c1381611b3f565b8114611c1e57600080fd5b5056fea26469706673582212204c48928d1908f33be0e52d1d37387e21fc45ff2c4d7466ab31d44469029dfd7f64736f6c63430006080033",
  "immutableReferences": {},
  "source": "// SPDX-License-Identifier: MIT\npragma solidity >=0.4.22 <0.9.0;\npragma experimental ABIEncoderV2;\n\nimport \"../../lib/Math.sol\";\n\nimport {Classifier64} from \"./Classifier.sol\";\n\n/**\n * A Perceptron where the data given for updating and predicting is dense.\n */\ncontract Perceptron is Classifier64 {\n\n    /**\n     * The weights for the model.\n     * Each multiplied by `toFloat`.\n     */\n    int80[] public weights;\n\n    /**\n     * The bias to add to the multiplication of the weights and the data.\n     * Multiplied by `toFloat`.\n     */\n    int80 public intercept;\n\n    /**\n     * The amount of impact that new training data has to the weights.\n     * Multiplied by `toFloat`.\n     */\n    uint32 public learningRate;\n\n    /**\n     * @param _classifications The classifications supported by the model.\n     * @param _weights The weights for the model. Each multiplied by `toFloat`.\n     * @param _intercept The bias to add to the multiplication of the weights and the data. Multiplied by `toFloat`.\n     * @param _learningRate (Optional, defaults to 1). The amount of impact that new training data has to the weights.\n     Multiplied by `toFloat`.\n     */\n    constructor(\n        string[] memory _classifications,\n        int80[] memory _weights,\n        int80 _intercept,\n        uint32 _learningRate\n    ) Classifier64(_classifications) public {\n        intercept = _intercept;\n        learningRate = _learningRate;\n\n        require(_weights.length < 2**64 - 1, \"Too many weights given.\");\n        weights = _weights;\n    }\n\n    /**\n     * Initialize more weights for the model.\n     * Made to be called just after the contract is created and never again.\n     * @param _weights The weights to append to the model.\n     */\n    function initializeWeights(int80[] memory _weights) public onlyOwner {\n        for (uint64 i = 0; i < _weights.length; ++i) {\n            weights.push(_weights[i]);\n        }\n    }\n\n    function norm(int64[] memory data) public override pure returns (uint result) {\n        result = 0;\n        for (uint i = 0; i < data.length; ++i) {\n            result = result.add(uint(int128(data[i]) * data[i]));\n        }\n        result = Math.sqrt(result);\n    }\n\n    function predict(int64[] memory data) public override view returns (uint64) {\n        int m = intercept;\n        require(data.length == weights.length, \"The data must have the same dimension as the weights.\");\n        for (uint i = 0; i < data.length; ++i) {\n            m = m.add(int(weights[i]).mul(data[i]));\n        }\n        if (m <= 0) {\n            return 0;\n        } else {\n            return 1;\n        }\n    }\n\n    function update(int64[] memory data, uint64 classification) public override payable returns (uint64){\n        uint len = data.length;\n        require(len == weights.length, \"The data must have the same dimension as the weights.\");\n\n        // Compute prediction and updates at the same time to save gas.\n        // If the model does not need to be updated, then this function should not be called\n        // because it will not actually update the state.\n        int prediction = intercept;\n        int80[] memory newWeights = new int80[](data.length);\n        uint _norm = 0;\n        if (classification > 0) {\n            // sign = 1\n            for(uint i = 0; i < len; ++i) {\n                int128 datum = data[i];\n                int80 w = weights[i];\n                prediction = prediction.add(int(w).mul(datum));\n                newWeights[i] = w + int80(datum * learningRate / toFloat);\n                _norm = _norm.add(uint(datum * datum));\n            }\n        } else {\n            // sign = -1\n            for(uint i = 0; i < len; ++i) {\n                int128 datum = data[i];\n                int80 w = weights[i];\n                prediction = prediction.add(int(w).mul(datum));\n                newWeights[i] = w - int80(datum * learningRate / toFloat);\n                _norm = _norm.add(uint(datum * datum));\n            }\n        }\n\n        if (prediction <= 0) {\n            prediction = 0;\n        } else {\n            prediction = 1;\n        }\n\n        // Must be almost within `toFloat` of `toFloat*toFloat` because we only care about the first `toFloat` digits.\n        uint oneSquared = uint(toFloat).mul(toFloat);\n        uint offset = uint(toFloat) * 100;\n        require(oneSquared - offset < _norm && _norm < oneSquared + offset, \"The provided data does not have a norm of 1.\");\n\n        if (prediction != classification) {\n            weights = newWeights;\n        }\n    }\n}\n",
  "sourcePath": "/home/starlord/Desktop/DeAi/contracts/Classifiers/Preceptron.sol",
  "compiler": {
    "name": "solc",
    "version": "0.6.8+commit.0bbfe453.Emscripten.clang"
  },
  "schemaVersion": "3.4.1",
  "updatedAt": "2021-05-30T14:25:39.774Z",
  "networkType": "ethereum",
  "devdoc": {
    "methods": {
      "addFeatureIndices(uint32[])": {
        "params": {
          "_featureIndices": "The feature indices to append to the array held by this contract."
        }
      },
      "constructor": {
        "params": {
          "_classifications": "The classifications supported by the model.",
          "_intercept": "The bias to add to the multiplication of the weights and the data. Multiplied by `toFloat`.",
          "_learningRate": "(Optional, defaults to 1). The amount of impact that new training data has to the weights. Multiplied by `toFloat`.",
          "_weights": "The weights for the model. Each multiplied by `toFloat`."
        }
      },
      "getNumClassifications()": {
        "returns": {
          "_0": "The number of possible classifications that can be predicted."
        }
      },
      "getNumFeatureIndices()": {
        "returns": {
          "_0": "The number of feature indices to use. 0 means to use all feature from the encoding."
        }
      },
      "initializeWeights(int80[])": {
        "params": {
          "_weights": "The weights to append to the model."
        }
      }
    }
  },
  "userdoc": {
    "methods": {
      "addFeatureIndices(uint32[])": {
        "notice": "Add more feature indices to take from the encoded result. Made to be called just after the contract is created and never again."
      },
      "initializeWeights(int80[])": {
        "notice": "Initialize more weights for the model. Made to be called just after the contract is created and never again."
      }
    },
    "notice": "A Perceptron where the data given for updating and predicting is dense."
  }
}