{
  "contractName": "Perceptron",
  "abi": [
    {
      "inputs": [
        {
          "internalType": "string[]",
          "name": "_classifications",
          "type": "string[]"
        },
        {
          "internalType": "int80[]",
          "name": "_weights",
          "type": "int80[]"
        },
        {
          "internalType": "int80",
          "name": "_intercept",
          "type": "int80"
        },
        {
          "internalType": "uint32",
          "name": "_learningRate",
          "type": "uint32"
        }
      ],
      "stateMutability": "nonpayable",
      "type": "constructor"
    },
    {
      "inputs": [
        {
          "internalType": "uint32[]",
          "name": "_featureIndices",
          "type": "uint32[]"
        }
      ],
      "name": "addFeatureIndices",
      "outputs": [],
      "stateMutability": "nonpayable",
      "type": "function"
    },
    {
      "inputs": [
        {
          "internalType": "uint256",
          "name": "",
          "type": "uint256"
        }
      ],
      "name": "classifications",
      "outputs": [
        {
          "internalType": "string",
          "name": "",
          "type": "string"
        }
      ],
      "stateMutability": "view",
      "type": "function",
      "constant": true
    },
    {
      "inputs": [
        {
          "internalType": "uint256",
          "name": "",
          "type": "uint256"
        }
      ],
      "name": "featureIndices",
      "outputs": [
        {
          "internalType": "uint32",
          "name": "",
          "type": "uint32"
        }
      ],
      "stateMutability": "view",
      "type": "function",
      "constant": true
    },
    {
      "inputs": [],
      "name": "getNumClassifications",
      "outputs": [
        {
          "internalType": "uint256",
          "name": "",
          "type": "uint256"
        }
      ],
      "stateMutability": "view",
      "type": "function",
      "constant": true
    },
    {
      "inputs": [],
      "name": "getNumFeatureIndices",
      "outputs": [
        {
          "internalType": "uint256",
          "name": "",
          "type": "uint256"
        }
      ],
      "stateMutability": "view",
      "type": "function",
      "constant": true
    },
    {
      "inputs": [],
      "name": "intercept",
      "outputs": [
        {
          "internalType": "int80",
          "name": "",
          "type": "int80"
        }
      ],
      "stateMutability": "view",
      "type": "function",
      "constant": true
    },
    {
      "inputs": [],
      "name": "learningRate",
      "outputs": [
        {
          "internalType": "uint32",
          "name": "",
          "type": "uint32"
        }
      ],
      "stateMutability": "view",
      "type": "function",
      "constant": true
    },
    {
      "inputs": [],
      "name": "owner",
      "outputs": [
        {
          "internalType": "address",
          "name": "",
          "type": "address"
        }
      ],
      "stateMutability": "view",
      "type": "function",
      "constant": true
    },
    {
      "inputs": [],
      "name": "toFloat",
      "outputs": [
        {
          "internalType": "uint32",
          "name": "",
          "type": "uint32"
        }
      ],
      "stateMutability": "view",
      "type": "function",
      "constant": true
    },
    {
      "inputs": [
        {
          "internalType": "address",
          "name": "newOwner",
          "type": "address"
        }
      ],
      "name": "transferOwnership",
      "outputs": [],
      "stateMutability": "nonpayable",
      "type": "function"
    },
    {
      "inputs": [
        {
          "internalType": "uint256",
          "name": "",
          "type": "uint256"
        }
      ],
      "name": "weights",
      "outputs": [
        {
          "internalType": "int80",
          "name": "",
          "type": "int80"
        }
      ],
      "stateMutability": "view",
      "type": "function",
      "constant": true
    },
    {
      "inputs": [
        {
          "internalType": "int80[]",
          "name": "_weights",
          "type": "int80[]"
        }
      ],
      "name": "initializeWeights",
      "outputs": [],
      "stateMutability": "nonpayable",
      "type": "function"
    },
    {
      "inputs": [
        {
          "internalType": "int64[]",
          "name": "data",
          "type": "int64[]"
        }
      ],
      "name": "norm",
      "outputs": [
        {
          "internalType": "uint256",
          "name": "result",
          "type": "uint256"
        }
      ],
      "stateMutability": "pure",
      "type": "function",
      "constant": true
    },
    {
      "inputs": [
        {
          "internalType": "int64[]",
          "name": "data",
          "type": "int64[]"
        }
      ],
      "name": "predict",
      "outputs": [
        {
          "internalType": "uint64",
          "name": "",
          "type": "uint64"
        }
      ],
      "stateMutability": "view",
      "type": "function",
      "constant": true
    },
    {
      "inputs": [
        {
          "internalType": "int64[]",
          "name": "data",
          "type": "int64[]"
        },
        {
          "internalType": "uint64",
          "name": "classification",
          "type": "uint64"
        }
      ],
      "name": "update",
      "outputs": [],
      "stateMutability": "nonpayable",
      "type": "function"
    }
  ],
  "bytecode": "0x60806040523480156200001157600080fd5b506040516200240238038062002402833981810160405281019062000037919062000585565b8380336000806101000a81548173ffffffffffffffffffffffffffffffffffffffff021916908373ffffffffffffffffffffffffffffffffffffffff16021790555080600190805190602001906200009192919062000156565b50505081600460006101000a81548169ffffffffffffffffffff021916908360090b69ffffffffffffffffffff160217905550806004600a6101000a81548163ffffffff021916908363ffffffff16021790555067ffffffffffffffff83511062000133576040517f08c379a00000000000000000000000000000000000000000000000000000000081526004016200012a9062000665565b60405180910390fd5b82600390805190602001906200014b929190620001bd565b5050505050620007cc565b828054828255906000526020600020908101928215620001aa579160200282015b82811115620001a95782518290805190602001906200019892919062000289565b509160200191906001019062000177565b5b509050620001b9919062000310565b5090565b82805482825590600052602060002090600201600390048101928215620002765791602002820160005b838211156200023c57835183826101000a81548169ffffffffffffffffffff021916908360090b69ffffffffffffffffffff1602179055509260200192600a01602081600901049283019260010302620001e7565b8015620002745782816101000a81549069ffffffffffffffffffff0219169055600a016020816009010492830192600103026200023c565b505b50905062000285919062000341565b5090565b828054600181600116156101000203166002900490600052602060002090601f016020900481019282601f10620002cc57805160ff1916838001178555620002fd565b82800160010185558215620002fd579182015b82811115620002fc578251825591602001919060010190620002df565b5b5090506200030c91906200037d565b5090565b6200033e91905b808211156200033a5760008181620003309190620003a5565b5060010162000317565b5090565b90565b6200037a91905b808211156200037657600081816101000a81549069ffffffffffffffffffff02191690555060010162000348565b5090565b90565b620003a291905b808211156200039e57600081600090555060010162000384565b5090565b90565b50805460018160011615610100020316600290046000825580601f10620003cd5750620003ee565b601f016020900490600052602060002090810190620003ed91906200037d565b5b50565b600082601f8301126200040357600080fd5b81516200041a6200041482620006b5565b62000687565b915081818352602084019350602081019050838560208402820111156200044057600080fd5b60005b83811015620004745781620004598882620004fb565b84526020840193506020830192505060018101905062000443565b5050505092915050565b600082601f8301126200049057600080fd5b8151620004a7620004a182620006de565b62000687565b9150818183526020840193506020810190508360005b83811015620004f15781518601620004d6888262000512565b845260208401935060208301925050600181019050620004bd565b5050505092915050565b6000815190506200050c8162000798565b92915050565b600082601f8301126200052457600080fd5b81516200053b620005358262000707565b62000687565b915080825260208301602083018583830111156200055857600080fd5b6200056583828462000762565b50505092915050565b6000815190506200057f81620007b2565b92915050565b600080600080608085870312156200059c57600080fd5b600085015167ffffffffffffffff811115620005b757600080fd5b620005c5878288016200047e565b945050602085015167ffffffffffffffff811115620005e357600080fd5b620005f187828801620003f1565b93505060406200060487828801620004fb565b925050606062000617878288016200056e565b91505092959194509250565b60006200063260178362000734565b91507f546f6f206d616e79207765696768747320676976656e2e0000000000000000006000830152602082019050919050565b60006020820190508181036000830152620006808162000623565b9050919050565b6000604051905081810181811067ffffffffffffffff82111715620006ab57600080fd5b8060405250919050565b600067ffffffffffffffff821115620006cd57600080fd5b602082029050602081019050919050565b600067ffffffffffffffff821115620006f657600080fd5b602082029050602081019050919050565b600067ffffffffffffffff8211156200071f57600080fd5b601f19601f8301169050602081019050919050565b600082825260208201905092915050565b60008160090b9050919050565b600063ffffffff82169050919050565b60005b838110156200078257808201518184015260208101905062000765565b8381111562000792576000848401525b50505050565b620007a38162000745565b8114620007af57600080fd5b50565b620007bd8162000752565b8114620007c957600080fd5b50565b611c2680620007dc6000396000f3fe608060405234801561001057600080fd5b50600436106100f55760003560e01c80635f7066a211610097578063b5f163ff11610066578063b5f163ff14610288578063bd7a1d61146102b8578063e2c009bf146102d4578063f2fde38b146102f2576100f5565b80635f7066a2146101ee578063823184821461021e5780638da5cb5b1461023a578063a889493014610258576100f5565b80631b72bc75116100d35780631b72bc7514610166578063375a255a146101845780633766bf19146101a057806349897d28146101be576100f5565b80630a6d371d146100fa57806310822e921461012a57806319c1376714610148575b600080fd5b610114600480360381019061010f91906114d3565b61030e565b60405161012191906119b1565b60405180910390f35b610132610345565b60405161013f9190611996565b60405180910390f35b610150610352565b60405161015d9190611859565b60405180910390f35b61016e610365565b60405161017b91906119b1565b60405180910390f35b61019e60048036038101906101999190611451565b61036d565b005b6101a861049e565b6040516101b591906119b1565b60405180910390f35b6101d860048036038101906101d391906113bc565b6104b4565b6040516101e59190611996565b60405180910390f35b610208600480360381019061020391906113bc565b61052a565b60405161021591906119cc565b60405180910390f35b61023860048036038101906102339190611492565b610631565b005b61024261074b565b60405161024f919061183e565b60405180910390f35b610272600480360381019061026d91906114d3565b610770565b60405161027f9190611874565b60405180910390f35b6102a2600480360381019061029d91906114d3565b610829565b6040516102af9190611859565b60405180910390f35b6102d260048036038101906102cd91906113fd565b61085d565b005b6102dc610c9b565b6040516102e99190611996565b60405180910390f35b61030c60048036038101906103079190611393565b610ca8565b005b6002818154811061031b57fe5b9060005260206000209060089182820401919006600402915054906101000a900463ffffffff1681565b6000600180549050905090565b600460009054906101000a900460090b81565b633b9aca0081565b6000809054906101000a900473ffffffffffffffffffffffffffffffffffffffff1673ffffffffffffffffffffffffffffffffffffffff163373ffffffffffffffffffffffffffffffffffffffff16146103fc576040517f08c379a00000000000000000000000000000000000000000000000000000000081526004016103f390611916565b60405180910390fd5b60008090505b81518167ffffffffffffffff16101561049a576003828267ffffffffffffffff168151811061042d57fe5b60200260200101519080600181540180825580915050600190039060005260206000209060039182820401919006600a029091909190916101000a81548169ffffffffffffffffffff021916908360090b69ffffffffffffffffffff160217905550806001019050610402565b5050565b6004600a9054906101000a900463ffffffff1681565b600080905060008090505b82518110156105195761050c8382815181106104d757fe5b602002602001015160070b8483815181106104ee57fe5b602002602001015160070b02600f0b83610dea90919063ffffffff16565b91508060010190506104bf565b5061052381610e3f565b9050919050565b600080600460009054906101000a900460090b60090b905060038054905083511461058a576040517f08c379a0000000000000000000000000000000000000000000000000000000008152600401610581906118b6565b60405180910390fd5b60008090505b8351811015610613576106066105f78583815181106105ab57fe5b602002602001015160070b600384815481106105c357fe5b9060005260206000209060039182820401919006600a029054906101000a900460090b60090b610ea890919063ffffffff16565b83610fa690919063ffffffff16565b9150806001019050610590565b506000811361062657600091505061062c565b60019150505b919050565b6000809054906101000a900473ffffffffffffffffffffffffffffffffffffffff1673ffffffffffffffffffffffffffffffffffffffff163373ffffffffffffffffffffffffffffffffffffffff16146106c0576040517f08c379a00000000000000000000000000000000000000000000000000000000081526004016106b790611916565b60405180910390fd5b60008090505b81518163ffffffff161015610747576002828263ffffffff16815181106106e957fe5b602002602001015190806001815401808255809150506001900390600052602060002090600891828204019190066004029091909190916101000a81548163ffffffff021916908363ffffffff1602179055508060010190506106c6565b5050565b6000809054906101000a900473ffffffffffffffffffffffffffffffffffffffff1681565b6001818154811061077d57fe5b906000526020600020016000915090508054600181600116156101000203166002900480601f0160208091040260200160405190810160405280929190818152602001828054600181600116156101000203166002900480156108215780601f106107f657610100808354040283529160200191610821565b820191906000526020600020905b81548152906001019060200180831161080457829003601f168201915b505050505081565b6003818154811061083657fe5b9060005260206000209060039182820401919006600a02915054906101000a900460090b81565b6000809054906101000a900473ffffffffffffffffffffffffffffffffffffffff1673ffffffffffffffffffffffffffffffffffffffff163373ffffffffffffffffffffffffffffffffffffffff16146108ec576040517f08c379a00000000000000000000000000000000000000000000000000000000081526004016108e390611916565b60405180910390fd5b6000825190506003805490508114610939576040517f08c379a0000000000000000000000000000000000000000000000000000000008152600401610930906118b6565b60405180910390fd5b6000600460009054906101000a900460090b60090b90506060845167ffffffffffffffff8111801561096a57600080fd5b506040519080825280602002602001820160405280156109995781602001602082028036833780820191505090505b509050600080905060008567ffffffffffffffff161115610abe5760008090505b84811015610ab85760008782815181106109d057fe5b602002602001015160070b90506000600383815481106109ec57fe5b9060005260206000209060039182820401919006600a029054906101000a900460090b9050610a3c610a2d83600f0b8360090b610ea890919063ffffffff16565b87610fa690919063ffffffff16565b9550633b9aca0063ffffffff166004600a9054906101000a900463ffffffff1663ffffffff168302600f0b81610a6e57fe5b058101858481518110610a7d57fe5b602002602001019060090b908160090b81525050610aa9828302600f0b85610dea90919063ffffffff16565b935050508060010190506109ba565b50610bc4565b60008090505b84811015610bc2576000878281518110610ada57fe5b602002602001015160070b9050600060038381548110610af657fe5b9060005260206000209060039182820401919006600a029054906101000a900460090b9050610b46610b3783600f0b8360090b610ea890919063ffffffff16565b87610fa690919063ffffffff16565b9550633b9aca0063ffffffff166004600a9054906101000a900463ffffffff1663ffffffff168302600f0b81610b7857fe5b058103858481518110610b8757fe5b602002602001019060090b908160090b81525050610bb3828302600f0b85610dea90919063ffffffff16565b93505050806001019050610ac4565b505b60008313610bd55760009250610bda565b600192505b6000610c03633b9aca0063ffffffff16633b9aca0063ffffffff1661101e90919063ffffffff16565b905060006064633b9aca0063ffffffff1602905082818303108015610c29575080820183105b610c68576040517f08c379a0000000000000000000000000000000000000000000000000000000008152600401610c5f90611976565b60405180910390fd5b8667ffffffffffffffff168514610c91578360039080519060200190610c8f92919061108e565b505b5050505050505050565b6000600280549050905090565b6000809054906101000a900473ffffffffffffffffffffffffffffffffffffffff1673ffffffffffffffffffffffffffffffffffffffff163373ffffffffffffffffffffffffffffffffffffffff1614610d37576040517f08c379a0000000000000000000000000000000000000000000000000000000008152600401610d2e90611916565b60405180910390fd5b600073ffffffffffffffffffffffffffffffffffffffff168173ffffffffffffffffffffffffffffffffffffffff161415610da7576040517f08c379a0000000000000000000000000000000000000000000000000000000008152600401610d9e90611896565b60405180910390fd5b806000806101000a81548173ffffffffffffffffffffffffffffffffffffffff021916908373ffffffffffffffffffffffffffffffffffffffff16021790555050565b600080828401905083811015610e35576040517f08c379a0000000000000000000000000000000000000000000000000000000008152600401610e2c906118d6565b60405180910390fd5b8091505092915050565b600080821415610e525760009050610ea3565b60038211610e635760019050610ea3565b600060026001840181610e7257fe5b0490508291505b81811015610ea157809150600281828581610e9057fe5b040181610e9957fe5b049050610e79565b505b919050565b600080831415610ebb5760009050610fa0565b7fffffffffffffffffffffffffffffffffffffffffffffffffffffffffffffffff83148015610f0957507f800000000000000000000000000000000000000000000000000000000000000082145b15610f49576040517f08c379a0000000000000000000000000000000000000000000000000000000008152600401610f4090611956565b60405180910390fd5b6000828402905082848281610f5a57fe5b0514610f9b576040517f08c379a0000000000000000000000000000000000000000000000000000000008152600401610f9290611956565b60405180910390fd5b809150505b92915050565b600080828401905060008312158015610fbf5750838112155b80610fd55750600083128015610fd457508381125b5b611014576040517f08c379a000000000000000000000000000000000000000000000000000000000815260040161100b906118f6565b60405180910390fd5b8091505092915050565b6000808314156110315760009050611088565b600082840290508284828161104257fe5b0414611083576040517f08c379a000000000000000000000000000000000000000000000000000000000815260040161107a90611936565b60405180910390fd5b809150505b92915050565b828054828255906000526020600020906002016003900481019282156111425791602002820160005b8382111561110a57835183826101000a81548169ffffffffffffffffffff021916908360090b69ffffffffffffffffffff1602179055509260200192600a016020816009010492830192600103026110b7565b80156111405782816101000a81549069ffffffffffffffffffff0219169055600a0160208160090104928301926001030261110a565b505b50905061114f9190611153565b5090565b61118991905b8082111561118557600081816101000a81549069ffffffffffffffffffff021916905550600101611159565b5090565b90565b60008135905061119b81611b66565b92915050565b600082601f8301126111b257600080fd5b81356111c56111c082611a14565b6119e7565b915081818352602084019350602081019050838560208402820111156111ea57600080fd5b60005b8381101561121a5781611200888261132a565b8452602084019350602083019250506001810190506111ed565b5050505092915050565b600082601f83011261123557600080fd5b813561124861124382611a3c565b6119e7565b9150818183526020840193506020810190508385602084028201111561126d57600080fd5b60005b8381101561129d5781611283888261133f565b845260208401935060208301925050600181019050611270565b5050505092915050565b600082601f8301126112b857600080fd5b81356112cb6112c682611a64565b6119e7565b915081818352602084019350602081019050838560208402820111156112f057600080fd5b60005b8381101561132057816113068882611369565b8452602084019350602083019250506001810190506112f3565b5050505092915050565b60008135905061133981611b7d565b92915050565b60008135905061134e81611b94565b92915050565b60008135905061136381611bab565b92915050565b60008135905061137881611bc2565b92915050565b60008135905061138d81611bd9565b92915050565b6000602082840312156113a557600080fd5b60006113b38482850161118c565b91505092915050565b6000602082840312156113ce57600080fd5b600082013567ffffffffffffffff8111156113e857600080fd5b6113f4848285016111a1565b91505092915050565b6000806040838503121561141057600080fd5b600083013567ffffffffffffffff81111561142a57600080fd5b611436858286016111a1565b92505060206114478582860161137e565b9150509250929050565b60006020828403121561146357600080fd5b600082013567ffffffffffffffff81111561147d57600080fd5b61148984828501611224565b91505092915050565b6000602082840312156114a457600080fd5b600082013567ffffffffffffffff8111156114be57600080fd5b6114ca848285016112a7565b91505092915050565b6000602082840312156114e557600080fd5b60006114f384828501611354565b91505092915050565b61150581611aa8565b82525050565b61151481611ac7565b82525050565b600061152582611a8c565b61152f8185611a97565b935061153f818560208601611b22565b61154881611b55565b840191505092915050565b6000611560601883611a97565b91507f4e6577206f776e65722063616e6e6f74206265203078302e00000000000000006000830152602082019050919050565b60006115a0603583611a97565b91507f5468652064617461206d7573742068617665207468652073616d652064696d6560008301527f6e73696f6e2061732074686520776569676874732e00000000000000000000006020830152604082019050919050565b6000611606601b83611a97565b91507f536166654d6174683a206164646974696f6e206f766572666c6f7700000000006000830152602082019050919050565b6000611646602183611a97565b91507f5369676e6564536166654d6174683a206164646974696f6e206f766572666c6f60008301527f77000000000000000000000000000000000000000000000000000000000000006020830152604082019050919050565b60006116ac601883611a97565b91507f53656e646572206973206e6f7420746865206f776e65722e00000000000000006000830152602082019050919050565b60006116ec602183611a97565b91507f536166654d6174683a206d756c7469706c69636174696f6e206f766572666c6f60008301527f77000000000000000000000000000000000000000000000000000000000000006020830152604082019050919050565b6000611752602783611a97565b91507f5369676e6564536166654d6174683a206d756c7469706c69636174696f6e206f60008301527f766572666c6f77000000000000000000000000000000000000000000000000006020830152604082019050919050565b60006117b8602c83611a97565b91507f5468652070726f7669646564206461746120646f6573206e6f7420686176652060008301527f61206e6f726d206f6620312e00000000000000000000000000000000000000006020830152604082019050919050565b61181a81611af4565b82525050565b61182981611afe565b82525050565b61183881611b0e565b82525050565b600060208201905061185360008301846114fc565b92915050565b600060208201905061186e600083018461150b565b92915050565b6000602082019050818103600083015261188e818461151a565b905092915050565b600060208201905081810360008301526118af81611553565b9050919050565b600060208201905081810360008301526118cf81611593565b9050919050565b600060208201905081810360008301526118ef816115f9565b9050919050565b6000602082019050818103600083015261190f81611639565b9050919050565b6000602082019050818103600083015261192f8161169f565b9050919050565b6000602082019050818103600083015261194f816116df565b9050919050565b6000602082019050818103600083015261196f81611745565b9050919050565b6000602082019050818103600083015261198f816117ab565b9050919050565b60006020820190506119ab6000830184611811565b92915050565b60006020820190506119c66000830184611820565b92915050565b60006020820190506119e1600083018461182f565b92915050565b6000604051905081810181811067ffffffffffffffff82111715611a0a57600080fd5b8060405250919050565b600067ffffffffffffffff821115611a2b57600080fd5b602082029050602081019050919050565b600067ffffffffffffffff821115611a5357600080fd5b602082029050602081019050919050565b600067ffffffffffffffff821115611a7b57600080fd5b602082029050602081019050919050565b600081519050919050565b600082825260208201905092915050565b6000611ab382611ad4565b9050919050565b60008160070b9050919050565b60008160090b9050919050565b600073ffffffffffffffffffffffffffffffffffffffff82169050919050565b6000819050919050565b600063ffffffff82169050919050565b600067ffffffffffffffff82169050919050565b60005b83811015611b40578082015181840152602081019050611b25565b83811115611b4f576000848401525b50505050565b6000601f19601f8301169050919050565b611b6f81611aa8565b8114611b7a57600080fd5b50565b611b8681611aba565b8114611b9157600080fd5b50565b611b9d81611ac7565b8114611ba857600080fd5b50565b611bb481611af4565b8114611bbf57600080fd5b50565b611bcb81611afe565b8114611bd657600080fd5b50565b611be281611b0e565b8114611bed57600080fd5b5056fea26469706673582212207e04d698c48b7d216662de5e0e6d21da9a199531e312e84176ca810b8e60ec4464736f6c63430006080033",
  "immutableReferences": {},
  "source": "// SPDX-License-Identifier: MIT\npragma solidity >=0.4.22 <0.9.0;\npragma experimental ABIEncoderV2;\n\nimport \"../../lib/Math.sol\";\n\nimport {Classifier64} from \"./Classifier.sol\";\n\n/**\n * A Perceptron where the data given for updating and predicting is dense.\n */\ncontract Perceptron is Classifier64 {\n\n    /**\n     * The weights for the model.\n     * Each multiplied by `toFloat`.\n     */\n    int80[] public weights;\n\n    /**\n     * The bias to add to the multiplication of the weights and the data.\n     * Multiplied by `toFloat`.\n     */\n    int80 public intercept;\n\n    /**\n     * The amount of impact that new training data has to the weights.\n     * Multiplied by `toFloat`.\n     */\n    uint32 public learningRate;\n\n    /**\n     * @param _classifications The classifications supported by the model.\n     * @param _weights The weights for the model. Each multiplied by `toFloat`.\n     * @param _intercept The bias to add to the multiplication of the weights and the data. Multiplied by `toFloat`.\n     * @param _learningRate (Optional, defaults to 1). The amount of impact that new training data has to the weights.\n     Multiplied by `toFloat`.\n     */\n    constructor(\n        string[] memory _classifications,\n        int80[] memory _weights,\n        int80 _intercept,\n        uint32 _learningRate\n    ) Classifier64(_classifications) public {\n        intercept = _intercept;\n        learningRate = _learningRate;\n\n        require(_weights.length < 2**64 - 1, \"Too many weights given.\");\n        weights = _weights;\n    }\n\n    /**\n     * Initialize more weights for the model.\n     * Made to be called just after the contract is created and never again.\n     * @param _weights The weights to append to the model.\n     */\n    function initializeWeights(int80[] memory _weights) public onlyOwner {\n        for (uint64 i = 0; i < _weights.length; ++i) {\n            weights.push(_weights[i]);\n        }\n    }\n\n    function norm(int64[] memory data) public override pure returns (uint result) {\n        result = 0;\n        for (uint i = 0; i < data.length; ++i) {\n            result = result.add(uint(int128(data[i]) * data[i]));\n        }\n        result = Math.sqrt(result);\n    }\n\n    function predict(int64[] memory data) public override view returns (uint64) {\n        int m = intercept;\n        require(data.length == weights.length, \"The data must have the same dimension as the weights.\");\n        for (uint i = 0; i < data.length; ++i) {\n            m = m.add(int(weights[i]).mul(data[i]));\n        }\n        if (m <= 0) {\n            return 0;\n        } else {\n            return 1;\n        }\n    }\n\n    function update(int64[] memory data, uint64 classification) public override onlyOwner {\n        uint len = data.length;\n        require(len == weights.length, \"The data must have the same dimension as the weights.\");\n\n        // Compute prediction and updates at the same time to save gas.\n        // If the model does not need to be updated, then this function should not be called\n        // because it will not actually update the state.\n        int prediction = intercept;\n        int80[] memory newWeights = new int80[](data.length);\n        uint _norm = 0;\n        if (classification > 0) {\n            // sign = 1\n            for(uint i = 0; i < len; ++i) {\n                int128 datum = data[i];\n                int80 w = weights[i];\n                prediction = prediction.add(int(w).mul(datum));\n                newWeights[i] = w + int80(datum * learningRate / toFloat);\n                _norm = _norm.add(uint(datum * datum));\n            }\n        } else {\n            // sign = -1\n            for(uint i = 0; i < len; ++i) {\n                int128 datum = data[i];\n                int80 w = weights[i];\n                prediction = prediction.add(int(w).mul(datum));\n                newWeights[i] = w - int80(datum * learningRate / toFloat);\n                _norm = _norm.add(uint(datum * datum));\n            }\n        }\n\n        if (prediction <= 0) {\n            prediction = 0;\n        } else {\n            prediction = 1;\n        }\n\n        // Must be almost within `toFloat` of `toFloat*toFloat` because we only care about the first `toFloat` digits.\n        uint oneSquared = uint(toFloat).mul(toFloat);\n        uint offset = uint(toFloat) * 100;\n        require(oneSquared - offset < _norm && _norm < oneSquared + offset, \"The provided data does not have a norm of 1.\");\n\n        if (prediction != classification) {\n            weights = newWeights;\n        }\n    }\n}\n",
  "sourcePath": "/home/starlord/Desktop/DeAi/contracts/Classifiers/Preceptron.sol",
  "compiler": {
    "name": "solc",
    "version": "0.6.8+commit.0bbfe453.Emscripten.clang"
  },
  "schemaVersion": "3.4.1",
  "updatedAt": "2021-05-29T11:00:46.105Z",
  "networkType": "ethereum",
  "devdoc": {
    "methods": {
      "addFeatureIndices(uint32[])": {
        "params": {
          "_featureIndices": "The feature indices to append to the array held by this contract."
        }
      },
      "constructor": {
        "params": {
          "_classifications": "The classifications supported by the model.",
          "_intercept": "The bias to add to the multiplication of the weights and the data. Multiplied by `toFloat`.",
          "_learningRate": "(Optional, defaults to 1). The amount of impact that new training data has to the weights. Multiplied by `toFloat`.",
          "_weights": "The weights for the model. Each multiplied by `toFloat`."
        }
      },
      "getNumClassifications()": {
        "returns": {
          "_0": "The number of possible classifications that can be predicted."
        }
      },
      "getNumFeatureIndices()": {
        "returns": {
          "_0": "The number of feature indices to use. 0 means to use all feature from the encoding."
        }
      },
      "initializeWeights(int80[])": {
        "params": {
          "_weights": "The weights to append to the model."
        }
      }
    }
  },
  "userdoc": {
    "methods": {
      "addFeatureIndices(uint32[])": {
        "notice": "Add more feature indices to take from the encoded result. Made to be called just after the contract is created and never again."
      },
      "initializeWeights(int80[])": {
        "notice": "Initialize more weights for the model. Made to be called just after the contract is created and never again."
      }
    },
    "notice": "A Perceptron where the data given for updating and predicting is dense."
  }
}