{
  "contractName": "SparsePerceptron",
  "abi": [
    {
      "inputs": [
        {
          "internalType": "string[]",
          "name": "_classifications",
          "type": "string[]"
        },
        {
          "internalType": "int80[]",
          "name": "_weights",
          "type": "int80[]"
        },
        {
          "internalType": "int80",
          "name": "_intercept",
          "type": "int80"
        },
        {
          "internalType": "uint32",
          "name": "_learningRate",
          "type": "uint32"
        }
      ],
      "stateMutability": "nonpayable",
      "type": "constructor"
    },
    {
      "inputs": [
        {
          "internalType": "uint32[]",
          "name": "_featureIndices",
          "type": "uint32[]"
        }
      ],
      "name": "addFeatureIndices",
      "outputs": [],
      "stateMutability": "nonpayable",
      "type": "function"
    },
    {
      "inputs": [
        {
          "internalType": "uint256",
          "name": "",
          "type": "uint256"
        }
      ],
      "name": "classifications",
      "outputs": [
        {
          "internalType": "string",
          "name": "",
          "type": "string"
        }
      ],
      "stateMutability": "view",
      "type": "function",
      "constant": true
    },
    {
      "inputs": [
        {
          "internalType": "uint256",
          "name": "",
          "type": "uint256"
        }
      ],
      "name": "featureIndices",
      "outputs": [
        {
          "internalType": "uint32",
          "name": "",
          "type": "uint32"
        }
      ],
      "stateMutability": "view",
      "type": "function",
      "constant": true
    },
    {
      "inputs": [],
      "name": "getNumClassifications",
      "outputs": [
        {
          "internalType": "uint256",
          "name": "",
          "type": "uint256"
        }
      ],
      "stateMutability": "view",
      "type": "function",
      "constant": true
    },
    {
      "inputs": [],
      "name": "getNumFeatureIndices",
      "outputs": [
        {
          "internalType": "uint256",
          "name": "",
          "type": "uint256"
        }
      ],
      "stateMutability": "view",
      "type": "function",
      "constant": true
    },
    {
      "inputs": [],
      "name": "intercept",
      "outputs": [
        {
          "internalType": "int80",
          "name": "",
          "type": "int80"
        }
      ],
      "stateMutability": "view",
      "type": "function",
      "constant": true
    },
    {
      "inputs": [],
      "name": "learningRate",
      "outputs": [
        {
          "internalType": "uint32",
          "name": "",
          "type": "uint32"
        }
      ],
      "stateMutability": "view",
      "type": "function",
      "constant": true
    },
    {
      "inputs": [],
      "name": "owner",
      "outputs": [
        {
          "internalType": "address",
          "name": "",
          "type": "address"
        }
      ],
      "stateMutability": "view",
      "type": "function",
      "constant": true
    },
    {
      "inputs": [],
      "name": "toFloat",
      "outputs": [
        {
          "internalType": "uint32",
          "name": "",
          "type": "uint32"
        }
      ],
      "stateMutability": "view",
      "type": "function",
      "constant": true
    },
    {
      "inputs": [
        {
          "internalType": "address",
          "name": "newOwner",
          "type": "address"
        }
      ],
      "name": "transferOwnership",
      "outputs": [],
      "stateMutability": "nonpayable",
      "type": "function"
    },
    {
      "inputs": [
        {
          "internalType": "uint64",
          "name": "",
          "type": "uint64"
        }
      ],
      "name": "weights",
      "outputs": [
        {
          "internalType": "int80",
          "name": "",
          "type": "int80"
        }
      ],
      "stateMutability": "view",
      "type": "function",
      "constant": true
    },
    {
      "inputs": [
        {
          "internalType": "uint64",
          "name": "startIndex",
          "type": "uint64"
        },
        {
          "internalType": "int80[]",
          "name": "_weights",
          "type": "int80[]"
        }
      ],
      "name": "initializeWeights",
      "outputs": [],
      "stateMutability": "nonpayable",
      "type": "function"
    },
    {
      "inputs": [
        {
          "internalType": "int80[][]",
          "name": "_weights",
          "type": "int80[][]"
        }
      ],
      "name": "initializeSparseWeights",
      "outputs": [],
      "stateMutability": "nonpayable",
      "type": "function"
    },
    {
      "inputs": [
        {
          "internalType": "int64[]",
          "name": "",
          "type": "int64[]"
        }
      ],
      "name": "norm",
      "outputs": [
        {
          "internalType": "uint256",
          "name": "",
          "type": "uint256"
        }
      ],
      "stateMutability": "pure",
      "type": "function",
      "constant": true
    },
    {
      "inputs": [
        {
          "internalType": "int64[]",
          "name": "data",
          "type": "int64[]"
        }
      ],
      "name": "predict",
      "outputs": [
        {
          "internalType": "uint64",
          "name": "",
          "type": "uint64"
        }
      ],
      "stateMutability": "view",
      "type": "function",
      "constant": true
    },
    {
      "inputs": [
        {
          "internalType": "int64[]",
          "name": "data",
          "type": "int64[]"
        },
        {
          "internalType": "uint64",
          "name": "classification",
          "type": "uint64"
        }
      ],
      "name": "update",
      "outputs": [],
      "stateMutability": "nonpayable",
      "type": "function"
    },
    {
      "inputs": [
        {
          "internalType": "uint24[60][]",
          "name": "dataBatch",
          "type": "uint24[60][]"
        },
        {
          "internalType": "uint64[]",
          "name": "_classifications",
          "type": "uint64[]"
        }
      ],
      "name": "evaluateBatch",
      "outputs": [
        {
          "internalType": "uint256",
          "name": "numCorrect",
          "type": "uint256"
        }
      ],
      "stateMutability": "view",
      "type": "function",
      "constant": true
    }
  ],
  "bytecode": "0x60806040523480156200001157600080fd5b506040516200223e3803806200223e8339818101604052810190620000379190620004fe565b8380336000806101000a81548173ffffffffffffffffffffffffffffffffffffffff021916908373ffffffffffffffffffffffffffffffffffffffff160217905550806001908051906020019062000091929190620001d7565b50505081600460006101000a81548169ffffffffffffffffffff021916908360090b69ffffffffffffffffffff160217905550806004600a6101000a81548163ffffffff021916908363ffffffff16021790555067ffffffffffffffff83511062000133576040517f08c379a00000000000000000000000000000000000000000000000000000000081526004016200012a90620005de565b60405180910390fd5b60008090505b83518167ffffffffffffffff161015620001cc57838167ffffffffffffffff16815181106200016457fe5b6020026020010151600360008367ffffffffffffffff1667ffffffffffffffff16815260200190815260200160002060006101000a81548169ffffffffffffffffffff021916908360090b69ffffffffffffffffffff16021790555080600101905062000139565b505050505062000745565b8280548282559060005260206000209081019282156200022b579160200282015b828111156200022a578251829080519060200190620002199291906200023e565b5091602001919060010190620001f8565b5b5090506200023a9190620002c5565b5090565b828054600181600116156101000203166002900490600052602060002090601f016020900481019282601f106200028157805160ff1916838001178555620002b2565b82800160010185558215620002b2579182015b82811115620002b157825182559160200191906001019062000294565b5b509050620002c19190620002f6565b5090565b620002f391905b80821115620002ef5760008181620002e591906200031e565b50600101620002cc565b5090565b90565b6200031b91905b8082111562000317576000816000905550600101620002fd565b5090565b90565b50805460018160011615610100020316600290046000825580601f1062000346575062000367565b601f016020900490600052602060002090810190620003669190620002f6565b5b50565b600082601f8301126200037c57600080fd5b8151620003936200038d826200062e565b62000600565b91508181835260208401935060208101905083856020840282011115620003b957600080fd5b60005b83811015620003ed5781620003d2888262000474565b845260208401935060208301925050600181019050620003bc565b5050505092915050565b600082601f8301126200040957600080fd5b8151620004206200041a8262000657565b62000600565b9150818183526020840193506020810190508360005b838110156200046a57815186016200044f88826200048b565b84526020840193506020830192505060018101905062000436565b5050505092915050565b600081519050620004858162000711565b92915050565b600082601f8301126200049d57600080fd5b8151620004b4620004ae8262000680565b62000600565b91508082526020830160208301858383011115620004d157600080fd5b620004de838284620006db565b50505092915050565b600081519050620004f8816200072b565b92915050565b600080600080608085870312156200051557600080fd5b600085015167ffffffffffffffff8111156200053057600080fd5b6200053e87828801620003f7565b945050602085015167ffffffffffffffff8111156200055c57600080fd5b6200056a878288016200036a565b93505060406200057d8782880162000474565b92505060606200059087828801620004e7565b91505092959194509250565b6000620005ab601783620006ad565b91507f546f6f206d616e79207765696768747320676976656e2e0000000000000000006000830152602082019050919050565b60006020820190508181036000830152620005f9816200059c565b9050919050565b6000604051905081810181811067ffffffffffffffff821117156200062457600080fd5b8060405250919050565b600067ffffffffffffffff8211156200064657600080fd5b602082029050602081019050919050565b600067ffffffffffffffff8211156200066f57600080fd5b602082029050602081019050919050565b600067ffffffffffffffff8211156200069857600080fd5b601f19601f8301169050602081019050919050565b600082825260208201905092915050565b60008160090b9050919050565b600063ffffffff82169050919050565b60005b83811015620006fb578082015181840152602081019050620006de565b838111156200070b576000848401525b50505050565b6200071c81620006be565b81146200072857600080fd5b50565b6200073681620006cb565b81146200074257600080fd5b50565b611ae980620007556000396000f3fe608060405234801561001057600080fd5b506004361061010b5760003560e01c80635f7066a2116100a2578063a889493011610071578063a8894930146102ba578063bd7a1d61146102ea578063d462f61114610306578063e2c009bf14610336578063f2fde38b146103545761010b565b80635f7066a214610234578063788b9fcb1461026457806382318482146102805780638da5cb5b1461029c5761010b565b80631b72bc75116100de5780631b72bc751461019857806320930f53146101b65780633766bf19146101e657806349897d28146102045761010b565b80630a6d371d1461011057806310822e92146101405780631396f97b1461015e57806319c137671461017a575b600080fd5b61012a60048036038101906101259190611449565b610370565b604051610137919061184c565b60405180910390f35b6101486103a7565b6040516101559190611831565b60405180910390f35b610178600480360381019061017391906112bd565b6103b4565b005b610182610558565b60405161018f9190611734565b60405180910390f35b6101a061056b565b6040516101ad919061184c565b60405180910390f35b6101d060048036038101906101cb91906112fe565b610573565b6040516101dd9190611831565b60405180910390f35b6101ee6106c7565b6040516101fb919061184c565b60405180910390f35b61021e60048036038101906102199190611373565b6106dd565b60405161022b9190611831565b60405180910390f35b61024e60048036038101906102499190611373565b61071a565b60405161025b9190611867565b60405180910390f35b61027e6004803603810190610279919061149b565b610823565b005b61029a60048036038101906102959190611408565b61094f565b005b6102a4610a69565b6040516102b19190611719565b60405180910390f35b6102d460048036038101906102cf9190611449565b610a8e565b6040516102e1919061174f565b60405180910390f35b61030460048036038101906102ff91906113b4565b610b47565b005b610320600480360381019061031b9190611472565b610d7a565b60405161032d9190611734565b60405180910390f35b61033e610d9a565b60405161034b9190611831565b60405180910390f35b61036e60048036038101906103699190611294565b610da7565b005b6002818154811061037d57fe5b9060005260206000209060089182820401919006600402915054906101000a900463ffffffff1681565b6000600180549050905090565b6000809054906101000a900473ffffffffffffffffffffffffffffffffffffffff1673ffffffffffffffffffffffffffffffffffffffff163373ffffffffffffffffffffffffffffffffffffffff1614610443576040517f08c379a000000000000000000000000000000000000000000000000000000000815260040161043a906117f1565b60405180910390fd5b60008090505b815181101561055457600082828151811061046057fe5b602002602001015160008151811061047457fe5b60200260200101519050680100000000000000008160090b126104cc576040517f08c379a00000000000000000000000000000000000000000000000000000000081526004016104c3906117b1565b60405180910390fd5b8282815181106104d857fe5b60200260200101516001815181106104ec57fe5b6020026020010151600360008367ffffffffffffffff1667ffffffffffffffff16815260200190815260200160002060006101000a81548169ffffffffffffffffffff021916908360090b69ffffffffffffffffffff16021790555050806001019050610449565b5050565b600460009054906101000a900460090b81565b633b9aca0081565b6000809050600085859050905060008061058b610f61565b600080600090505b858110156106b9578a8a828181106105a757fe5b90506107800201603c806020026040519081016040528092919082603c60200280828437600081840152601f19601f8201169050808301925050505050509250600460009054906101000a900460090b9150603c9350600094505b8385101561065957600360008487603c811061061a57fe5b602002015162ffffff1667ffffffffffffffff16815260200190815260200160002060009054906101000a900460090b82019150846001019450610602565b60008260090b1361066d5760009150610672565b600191505b88888281811061067e57fe5b90506020020160208101906106939190611472565b67ffffffffffffffff168260090b14156106ae576001870196505b806001019050610593565b505050505050949350505050565b6004600a9054906101000a900463ffffffff1681565b60006040517f08c379a000000000000000000000000000000000000000000000000000000000815260040161071190611791565b60405180910390fd5b600080600460009054906101000a900460090b60090b905060008090505b835181101561080557600084828151811061074f57fe5b602002602001015160070b121561079b576040517f08c379a000000000000000000000000000000000000000000000000000000000815260040161079290611811565b60405180910390fd5b6107f8600360008684815181106107ae57fe5b602002602001015167ffffffffffffffff1667ffffffffffffffff16815260200190815260200160002060009054906101000a900460090b60090b83610ee990919063ffffffff16565b9150806001019050610738565b506000811361081857600091505061081e565b60019150505b919050565b6000809054906101000a900473ffffffffffffffffffffffffffffffffffffffff1673ffffffffffffffffffffffffffffffffffffffff163373ffffffffffffffffffffffffffffffffffffffff16146108b2576040517f08c379a00000000000000000000000000000000000000000000000000000000081526004016108a9906117f1565b60405180910390fd5b60008090505b81518167ffffffffffffffff16101561094a57818167ffffffffffffffff16815181106108e157fe5b60200260200101516003600083860167ffffffffffffffff1667ffffffffffffffff16815260200190815260200160002060006101000a81548169ffffffffffffffffffff021916908360090b69ffffffffffffffffffff1602179055508060010190506108b8565b505050565b6000809054906101000a900473ffffffffffffffffffffffffffffffffffffffff1673ffffffffffffffffffffffffffffffffffffffff163373ffffffffffffffffffffffffffffffffffffffff16146109de576040517f08c379a00000000000000000000000000000000000000000000000000000000081526004016109d5906117f1565b60405180910390fd5b60008090505b81518163ffffffff161015610a65576002828263ffffffff1681518110610a0757fe5b602002602001015190806001815401808255809150506001900390600052602060002090600891828204019190066004029091909190916101000a81548163ffffffff021916908363ffffffff1602179055508060010190506109e4565b5050565b6000809054906101000a900473ffffffffffffffffffffffffffffffffffffffff1681565b60018181548110610a9b57fe5b906000526020600020016000915090508054600181600116156101000203166002900480601f016020809104026020016040519081016040528092919081815260200182805460018160011615610100020316600290048015610b3f5780601f10610b1457610100808354040283529160200191610b3f565b820191906000526020600020905b815481529060010190602001808311610b2257829003601f168201915b505050505081565b6000809054906101000a900473ffffffffffffffffffffffffffffffffffffffff1673ffffffffffffffffffffffffffffffffffffffff163373ffffffffffffffffffffffffffffffffffffffff1614610bd6576040517f08c379a0000000000000000000000000000000000000000000000000000000008152600401610bcd906117f1565b60405180910390fd5b6000610be18361071a565b90508167ffffffffffffffff168167ffffffffffffffff1614610d75576000808451905060008467ffffffffffffffff161115610cc757600091505b80821015610cc2576004600a9054906101000a900463ffffffff1663ffffffff1660036000878581518110610c4e57fe5b602002602001015167ffffffffffffffff1667ffffffffffffffff16815260200190815260200160002060008282829054906101000a900460090b0192506101000a81548169ffffffffffffffffffff021916908360090b69ffffffffffffffffffff160217905550816001019150610c1d565b610d72565b600091505b80821015610d71576004600a9054906101000a900463ffffffff1663ffffffff1660036000878581518110610cfd57fe5b602002602001015167ffffffffffffffff1667ffffffffffffffff16815260200190815260200160002060008282829054906101000a900460090b0392506101000a81548169ffffffffffffffffffff021916908360090b69ffffffffffffffffffff160217905550816001019150610ccc565b5b50505b505050565b60036020528060005260406000206000915054906101000a900460090b81565b6000600280549050905090565b6000809054906101000a900473ffffffffffffffffffffffffffffffffffffffff1673ffffffffffffffffffffffffffffffffffffffff163373ffffffffffffffffffffffffffffffffffffffff1614610e36576040517f08c379a0000000000000000000000000000000000000000000000000000000008152600401610e2d906117f1565b60405180910390fd5b600073ffffffffffffffffffffffffffffffffffffffff168173ffffffffffffffffffffffffffffffffffffffff161415610ea6576040517f08c379a0000000000000000000000000000000000000000000000000000000008152600401610e9d90611771565b60405180910390fd5b806000806101000a81548173ffffffffffffffffffffffffffffffffffffffff021916908373ffffffffffffffffffffffffffffffffffffffff16021790555050565b600080828401905060008312158015610f025750838112155b80610f185750600083128015610f1757508381125b5b610f57576040517f08c379a0000000000000000000000000000000000000000000000000000000008152600401610f4e906117d1565b60405180910390fd5b8091505092915050565b604051806107800160405280603c90602082028036833780820191505090505090565b600081359050610f9381611a29565b92915050565b600082601f830112610faa57600080fd5b8135610fbd610fb8826118af565b611882565b9150818183526020840193506020810190508360005b838110156110035781358601610fe988826110db565b845260208401935060208301925050600181019050610fd3565b5050505092915050565b60008083601f84011261101f57600080fd5b8235905067ffffffffffffffff81111561103857600080fd5b6020830191508361078082028301111561105157600080fd5b9250929050565b600082601f83011261106957600080fd5b813561107c611077826118d7565b611882565b915081818352602084019350602081019050838560208402820111156110a157600080fd5b60005b838110156110d157816110b7888261122b565b8452602084019350602083019250506001810190506110a4565b5050505092915050565b600082601f8301126110ec57600080fd5b81356110ff6110fa826118ff565b611882565b9150818183526020840193506020810190508385602084028201111561112457600080fd5b60005b83811015611154578161113a8882611240565b845260208401935060208301925050600181019050611127565b5050505092915050565b600082601f83011261116f57600080fd5b813561118261117d82611927565b611882565b915081818352602084019350602081019050838560208402820111156111a757600080fd5b60005b838110156111d757816111bd888261126a565b8452602084019350602083019250506001810190506111aa565b5050505092915050565b60008083601f8401126111f357600080fd5b8235905067ffffffffffffffff81111561120c57600080fd5b60208301915083602082028301111561122457600080fd5b9250929050565b60008135905061123a81611a40565b92915050565b60008135905061124f81611a57565b92915050565b60008135905061126481611a6e565b92915050565b60008135905061127981611a85565b92915050565b60008135905061128e81611a9c565b92915050565b6000602082840312156112a657600080fd5b60006112b484828501610f84565b91505092915050565b6000602082840312156112cf57600080fd5b600082013567ffffffffffffffff8111156112e957600080fd5b6112f584828501610f99565b91505092915050565b6000806000806040858703121561131457600080fd5b600085013567ffffffffffffffff81111561132e57600080fd5b61133a8782880161100d565b9450945050602085013567ffffffffffffffff81111561135957600080fd5b611365878288016111e1565b925092505092959194509250565b60006020828403121561138557600080fd5b600082013567ffffffffffffffff81111561139f57600080fd5b6113ab84828501611058565b91505092915050565b600080604083850312156113c757600080fd5b600083013567ffffffffffffffff8111156113e157600080fd5b6113ed85828601611058565b92505060206113fe8582860161127f565b9150509250929050565b60006020828403121561141a57600080fd5b600082013567ffffffffffffffff81111561143457600080fd5b6114408482850161115e565b91505092915050565b60006020828403121561145b57600080fd5b600061146984828501611255565b91505092915050565b60006020828403121561148457600080fd5b60006114928482850161127f565b91505092915050565b600080604083850312156114ae57600080fd5b60006114bc8582860161127f565b925050602083013567ffffffffffffffff8111156114d957600080fd5b6114e5858286016110db565b9150509250929050565b6114f88161196b565b82525050565b6115078161198a565b82525050565b60006115188261194f565b611522818561195a565b93506115328185602086016119e5565b61153b81611a18565b840191505092915050565b600061155360188361195a565b91507f4e6577206f776e65722063616e6e6f74206265203078302e00000000000000006000830152602082019050919050565b6000611593601e8361195a565b91507f4e6f726d616c697a6174696f6e206973206e6f742072657175697265642e00006000830152602082019050919050565b60006115d3601d8361195a565b91507f41206665617475726520696e64657820697320746f6f206c617267652e0000006000830152602082019050919050565b600061161360218361195a565b91507f5369676e6564536166654d6174683a206164646974696f6e206f766572666c6f60008301527f77000000000000000000000000000000000000000000000000000000000000006020830152604082019050919050565b600061167960188361195a565b91507f53656e646572206973206e6f7420746865206f776e65722e00000000000000006000830152602082019050919050565b60006116b960198361195a565b91507f4e6f7420616c6c20696e646963657320617265203e3d20302e000000000000006000830152602082019050919050565b6116f5816119b7565b82525050565b611704816119c1565b82525050565b611713816119d1565b82525050565b600060208201905061172e60008301846114ef565b92915050565b600060208201905061174960008301846114fe565b92915050565b60006020820190508181036000830152611769818461150d565b905092915050565b6000602082019050818103600083015261178a81611546565b9050919050565b600060208201905081810360008301526117aa81611586565b9050919050565b600060208201905081810360008301526117ca816115c6565b9050919050565b600060208201905081810360008301526117ea81611606565b9050919050565b6000602082019050818103600083015261180a8161166c565b9050919050565b6000602082019050818103600083015261182a816116ac565b9050919050565b600060208201905061184660008301846116ec565b92915050565b600060208201905061186160008301846116fb565b92915050565b600060208201905061187c600083018461170a565b92915050565b6000604051905081810181811067ffffffffffffffff821117156118a557600080fd5b8060405250919050565b600067ffffffffffffffff8211156118c657600080fd5b602082029050602081019050919050565b600067ffffffffffffffff8211156118ee57600080fd5b602082029050602081019050919050565b600067ffffffffffffffff82111561191657600080fd5b602082029050602081019050919050565b600067ffffffffffffffff82111561193e57600080fd5b602082029050602081019050919050565b600081519050919050565b600082825260208201905092915050565b600061197682611997565b9050919050565b60008160070b9050919050565b60008160090b9050919050565b600073ffffffffffffffffffffffffffffffffffffffff82169050919050565b6000819050919050565b600063ffffffff82169050919050565b600067ffffffffffffffff82169050919050565b60005b83811015611a035780820151818401526020810190506119e8565b83811115611a12576000848401525b50505050565b6000601f19601f8301169050919050565b611a328161196b565b8114611a3d57600080fd5b50565b611a498161197d565b8114611a5457600080fd5b50565b611a608161198a565b8114611a6b57600080fd5b50565b611a77816119b7565b8114611a8257600080fd5b50565b611a8e816119c1565b8114611a9957600080fd5b50565b611aa5816119d1565b8114611ab057600080fd5b5056fea264697066735822122061dd4c8da209459f720399e56041e2d057f5bbece947dc9b70d2608aa001fbb864736f6c63430006080033",
  "immutableReferences": {},
  "source": "// SPDX-License-Identifier: MIT\npragma solidity >=0.4.22 <0.9.0;\npragma experimental ABIEncoderV2;\n\nimport {Classifier64} from \"./Classifier.sol\";\n\n/**\n * A Perceptron where the data given for updating and predicting is sparse.\n * `update` and `predict` methods take `data` that holds the indices of the features that are present.\n */\ncontract SparsePerceptron is Classifier64 {\n\n    /**\n     * The weights for the model.\n     * Multiplied by `toFloat`.\n     */\n    mapping(uint64 => int80) public weights;\n\n    /**\n     * The bias to add to the multiplication of the weights and the data.\n     * Multiplied by `toFloat`.\n     */\n    int80 public intercept;\n\n    /**\n     * The amount of impact that new training data has to the weights.\n     * Multiplied by `toFloat`.\n     */\n    uint32 public learningRate;\n\n    /**\n     * @param _classifications The classifications supported by the model.\n     * @param _weights The weights for the model. Each multiplied by `toFloat`.\n     * @param _intercept The bias to add to the multiplication of the weights and the data. Multiplied by `toFloat`.\n     * @param _learningRate (Optional, defaults to 1). The amount of impact that new training data has to the weights.\n     Multiplied by `toFloat`.\n     */\n    constructor(\n        string[] memory _classifications,\n        int80[] memory _weights,\n        int80 _intercept,\n        uint32 _learningRate\n    ) Classifier64(_classifications) public {\n        intercept = _intercept;\n        learningRate = _learningRate;\n\n        require(_weights.length < 2**64 - 1, \"Too many weights given.\");\n        for (uint64 i = 0; i < _weights.length; ++i) {\n            weights[i] = _weights[i];\n        }\n    }\n\n    /**\n     * Initialize weights for the model.\n     * Made to be called just after the contract is created and never again.\n     * @param startIndex The index to start placing `_weights` into the model's weights.\n     * @param _weights The weights to set for the model.\n     */\n    function initializeWeights(uint64 startIndex, int80[] memory _weights) public onlyOwner {\n        for (uint64 i = 0; i < _weights.length; ++i) {\n            weights[startIndex + i] = _weights[i];\n        }\n    }\n\n    /**\n     * Initialize sparse weights for the model.\n     * Made to be called just after the contract is created and never again.\n     * @param _weights A sparse representation of the weights.\n     * Each innermost array is a tuple of the feature index and the weight for that feature.\n     */\n    function initializeSparseWeights(int80[][] memory _weights) public onlyOwner {\n        for (uint i = 0; i < _weights.length; ++i) {\n            int80 featureIndex = _weights[i][0];\n            require(featureIndex < 2 ** 64, \"A feature index is too large.\");\n            weights[uint64(featureIndex)] = _weights[i][1];\n        }\n    }\n\n    function norm(int64[] memory /* data */) public override pure returns (uint) {\n        revert(\"Normalization is not required.\");\n    }\n\n    function predict(int64[] memory data) public override view returns (uint64) {\n        int m = intercept;\n        for (uint i = 0; i < data.length; ++i) {\n            // `update` assumes this check is done.\n            require(data[i] >= 0, \"Not all indices are >= 0.\");\n            m = m.add(weights[uint64(data[i])]);\n        }\n        if (m <= 0) {\n            return 0;\n        } else {\n            return 1;\n        }\n    }\n\n    function update(int64[] memory data, uint64 classification) public override onlyOwner {\n        // `data` holds the indices of the features that are present.\n        uint64 prediction = predict(data);\n        if (prediction != classification) {\n            // Update model.\n            // predict checks each data[i] >= 0.\n            uint i;\n            uint len = data.length;\n            if (classification > 0) {\n                // sign = 1\n                for(i = 0; i < len; ++i) {\n                    weights[uint64(data[i])] += learningRate;\n                }\n            } else {\n                // sign = -1\n                for(i = 0; i < len; ++i) {\n                    weights[uint64(data[i])] -= learningRate;\n                }\n            }\n        }\n    }\n\n    /**\n     * Evaluate a batch.\n     *\n     * Force samples to have a size of 60 because about 78% of the IMDB test data has less than 60 tokens. If the sample has less than 60 unique tokens, then use a value > weights.length.\n     *\n     * @return numCorrect The number correct in the batch.\n     */\n    function evaluateBatch(uint24[60][] calldata dataBatch, uint64[] calldata _classifications) external view returns (uint numCorrect) {\n        numCorrect = 0;\n        uint len = dataBatch.length;\n        uint i;\n        uint dataLen;\n        uint24[60] memory data;\n        int80 prediction;\n        for (uint dataIndex = 0; dataIndex < len; ++dataIndex) {\n            data = dataBatch[dataIndex];\n            // Re-implement prediction for speed and to handle the type of data not matching.\n            prediction = intercept;\n            dataLen = data.length;\n            for (i = 0; i < dataLen; ++i) {\n                prediction += weights[data[i]];\n            }\n            if (prediction <= 0) {\n                prediction = 0;\n            } else {\n                prediction = 1;\n            }\n\n            if (prediction == _classifications[dataIndex]) {\n                numCorrect += 1;\n            }\n        }\n    }\n}\n",
  "sourcePath": "/home/starlord/Desktop/DeAi/contracts/Classifiers/SparsePerceptron.sol",
  "compiler": {
    "name": "solc",
    "version": "0.6.8+commit.0bbfe453.Emscripten.clang"
  },
  "schemaVersion": "3.4.1",
  "updatedAt": "2021-05-29T11:00:39.539Z",
  "networkType": "ethereum",
  "devdoc": {
    "methods": {
      "addFeatureIndices(uint32[])": {
        "params": {
          "_featureIndices": "The feature indices to append to the array held by this contract."
        }
      },
      "constructor": {
        "params": {
          "_classifications": "The classifications supported by the model.",
          "_intercept": "The bias to add to the multiplication of the weights and the data. Multiplied by `toFloat`.",
          "_learningRate": "(Optional, defaults to 1). The amount of impact that new training data has to the weights. Multiplied by `toFloat`.",
          "_weights": "The weights for the model. Each multiplied by `toFloat`."
        }
      },
      "evaluateBatch(uint24[60][],uint64[])": {
        "returns": {
          "numCorrect": "The number correct in the batch."
        }
      },
      "getNumClassifications()": {
        "returns": {
          "_0": "The number of possible classifications that can be predicted."
        }
      },
      "getNumFeatureIndices()": {
        "returns": {
          "_0": "The number of feature indices to use. 0 means to use all feature from the encoding."
        }
      },
      "initializeSparseWeights(int80[][])": {
        "params": {
          "_weights": "A sparse representation of the weights. Each innermost array is a tuple of the feature index and the weight for that feature."
        }
      },
      "initializeWeights(uint64,int80[])": {
        "params": {
          "_weights": "The weights to set for the model.",
          "startIndex": "The index to start placing `_weights` into the model's weights."
        }
      }
    }
  },
  "userdoc": {
    "methods": {
      "addFeatureIndices(uint32[])": {
        "notice": "Add more feature indices to take from the encoded result. Made to be called just after the contract is created and never again."
      },
      "evaluateBatch(uint24[60][],uint64[])": {
        "notice": "Evaluate a batch.     * Force samples to have a size of 60 because about 78% of the IMDB test data has less than 60 tokens. If the sample has less than 60 unique tokens, then use a value > weights.length."
      },
      "initializeSparseWeights(int80[][])": {
        "notice": "Initialize sparse weights for the model. Made to be called just after the contract is created and never again."
      },
      "initializeWeights(uint64,int80[])": {
        "notice": "Initialize weights for the model. Made to be called just after the contract is created and never again."
      }
    },
    "notice": "A Perceptron where the data given for updating and predicting is sparse. `update` and `predict` methods take `data` that holds the indices of the features that are present."
  }
}